{"contracts/UniswapV3ETHSwapper.sol":{"UniswapV3ETHSwapper":{"abi":[{"anonymous":false,"inputs":[{"indexed":true,"internalType":"address","name":"user","type":"address"},{"indexed":true,"internalType":"address","name":"tokenOut","type":"address"},{"indexed":false,"internalType":"uint256","name":"ethIn","type":"uint256"},{"indexed":false,"internalType":"uint256","name":"amountOut","type":"uint256"}],"name":"SwapExecuted","type":"event"},{"inputs":[],"name":"WETH","outputs":[{"internalType":"address","name":"","type":"address"}],"stateMutability":"view","type":"function"},{"inputs":[{"internalType":"uint256","name":"_amountOutMin","type":"uint256"}],"name":"swapETHForWETH","outputs":[{"internalType":"uint256","name":"amountOut","type":"uint256"}],"stateMutability":"payable","type":"function"},{"inputs":[],"name":"swapRouter","outputs":[{"internalType":"contract ISwapRouter","name":"","type":"address"}],"stateMutability":"view","type":"function"},{"inputs":[{"internalType":"address","name":"_tokenIn","type":"address"},{"internalType":"address","name":"_tokenOut","type":"address"},{"internalType":"uint24","name":"_fee","type":"uint24"},{"internalType":"uint256","name":"_amountIn","type":"uint256"},{"internalType":"uint256","name":"_amountOutMin","type":"uint256"}],"name":"swapTokenForToken","outputs":[{"internalType":"uint256","name":"amountOut","type":"uint256"}],"stateMutability":"nonpayable","type":"function"},{"inputs":[],"name":"wethBalance","outputs":[{"internalType":"uint256","name":"","type":"uint256"}],"stateMutability":"view","type":"function"},{"inputs":[],"name":"wrapETH","outputs":[],"stateMutability":"payable","type":"function"},{"stateMutability":"payable","type":"receive"}],"evm":{"bytecode":{"linkReferences":{},"object":"6080604052348015600f57600080fd5b50610f3e8061001f6000396000f3fe6080604052600436106100595760003560e01c80632f6b81431461006557806393ed5e4b14610090578063a85ef678146100c0578063ad5c4648146100ca578063c31c9c07146100f5578063c91305f51461012057610060565b3661006057005b600080fd5b34801561007157600080fd5b5061007a61015d565b60405161008791906108cc565b60405180910390f35b6100aa60048036038101906100a59190610918565b6101f7565b6040516100b791906108cc565b60405180910390f35b6100c861040e565b005b3480156100d657600080fd5b506100df6104c8565b6040516100ec9190610986565b60405180910390f35b34801561010157600080fd5b5061010a6104e0565b6040516101179190610a00565b60405180910390f35b34801561012c57600080fd5b5061014760048036038101906101429190610a82565b6104f8565b60405161015491906108cc565b60405180910390f35b60008073c02aaa39b223fe8d0a0e5c4f27ead9083c756cc290508073ffffffffffffffffffffffffffffffffffffffff166370a08231336040518263ffffffff1660e01b81526004016101b09190610986565b602060405180830381865afa1580156101cd573d6000803e3d6000fd5b505050506040513d601f19601f820116820180604052508101906101f19190610b12565b91505090565b600080341161023b576040517f08c379a000000000000000000000000000000000000000000000000000000000815260040161023290610b9c565b60405180910390fd5b60006040518060e0016040528073c02aaa39b223fe8d0a0e5c4f27ead9083c756cc273ffffffffffffffffffffffffffffffffffffffff16815260200173c02aaa39b223fe8d0a0e5c4f27ead9083c756cc273ffffffffffffffffffffffffffffffffffffffff168152602001610bb862ffffff1681526020013373ffffffffffffffffffffffffffffffffffffffff168152602001348152602001848152602001600073ffffffffffffffffffffffffffffffffffffffff16815250905073e592427a0aece92de3edee1f18e0157c0586156473ffffffffffffffffffffffffffffffffffffffff166304e45aaf34836040518363ffffffff1660e01b81526004016103489190610c86565b60206040518083038185885af1158015610366573d6000803e3d6000fd5b50505050506040513d601f19601f8201168201806040525081019061038b9190610b12565b915073c02aaa39b223fe8d0a0e5c4f27ead9083c756cc273ffffffffffffffffffffffffffffffffffffffff163373ffffffffffffffffffffffffffffffffffffffff167fdd36740e2a012d93061a0d99eaa9107860955de4e90027d3cf465a055026c4073485604051610400929190610ca1565b60405180910390a350919050565b60003411610451576040517f08c379a000000000000000000000000000000000000000000000000000000000815260040161044890610b9c565b60405180910390fd5b73c02aaa39b223fe8d0a0e5c4f27ead9083c756cc273ffffffffffffffffffffffffffffffffffffffff1663d0e30db0346040518263ffffffff1660e01b81526004016000604051808303818588803b1580156104ad57600080fd5b505af11580156104c1573d6000803e3d6000fd5b5050505050565b73c02aaa39b223fe8d0a0e5c4f27ead9083c756cc281565b73e592427a0aece92de3edee1f18e0157c0586156481565b60008073ffffffffffffffffffffffffffffffffffffffff168673ffffffffffffffffffffffffffffffffffffffff1603610568576040517f08c379a000000000000000000000000000000000000000000000000000000000815260040161055f90610d16565b60405180910390fd5b600073ffffffffffffffffffffffffffffffffffffffff168573ffffffffffffffffffffffffffffffffffffffff16036105d7576040517f08c379a00000000000000000000000000000000000000000000000000000000081526004016105ce90610d82565b60405180910390fd5b8473ffffffffffffffffffffffffffffffffffffffff168673ffffffffffffffffffffffffffffffffffffffff1603610645576040517f08c379a000000000000000000000000000000000000000000000000000000000815260040161063c90610dee565b60405180910390fd5b60008311610688576040517f08c379a000000000000000000000000000000000000000000000000000000000815260040161067f90610e5a565b60405180910390fd5b8573ffffffffffffffffffffffffffffffffffffffff1663095ea7b373e592427a0aece92de3edee1f18e0157c05861564856040518363ffffffff1660e01b81526004016106d7929190610e7a565b6020604051808303816000875af11580156106f6573d6000803e3d6000fd5b505050506040513d601f19601f8201168201806040525081019061071a9190610edb565b5060006040518060e001604052808873ffffffffffffffffffffffffffffffffffffffff1681526020018773ffffffffffffffffffffffffffffffffffffffff1681526020018662ffffff1681526020013373ffffffffffffffffffffffffffffffffffffffff168152602001858152602001848152602001600073ffffffffffffffffffffffffffffffffffffffff16815250905073e592427a0aece92de3edee1f18e0157c0586156473ffffffffffffffffffffffffffffffffffffffff166304e45aaf826040518263ffffffff1660e01b81526004016107fd9190610c86565b6020604051808303816000875af115801561081c573d6000803e3d6000fd5b505050506040513d601f19601f820116820180604052508101906108409190610b12565b91508573ffffffffffffffffffffffffffffffffffffffff163373ffffffffffffffffffffffffffffffffffffffff167fdd36740e2a012d93061a0d99eaa9107860955de4e90027d3cf465a055026c40786856040516108a1929190610ca1565b60405180910390a35095945050505050565b6000819050919050565b6108c6816108b3565b82525050565b60006020820190506108e160008301846108bd565b92915050565b600080fd5b6108f5816108b3565b811461090057600080fd5b50565b600081359050610912816108ec565b92915050565b60006020828403121561092e5761092d6108e7565b5b600061093c84828501610903565b91505092915050565b600073ffffffffffffffffffffffffffffffffffffffff82169050919050565b600061097082610945565b9050919050565b61098081610965565b82525050565b600060208201905061099b6000830184610977565b92915050565b6000819050919050565b60006109c66109c16109bc84610945565b6109a1565b610945565b9050919050565b60006109d8826109ab565b9050919050565b60006109ea826109cd565b9050919050565b6109fa816109df565b82525050565b6000602082019050610a1560008301846109f1565b92915050565b610a2481610965565b8114610a2f57600080fd5b50565b600081359050610a4181610a1b565b92915050565b600062ffffff82169050919050565b610a5f81610a47565b8114610a6a57600080fd5b50565b600081359050610a7c81610a56565b92915050565b600080600080600060a08688031215610a9e57610a9d6108e7565b5b6000610aac88828901610a32565b9550506020610abd88828901610a32565b9450506040610ace88828901610a6d565b9350506060610adf88828901610903565b9250506080610af088828901610903565b9150509295509295909350565b600081519050610b0c816108ec565b92915050565b600060208284031215610b2857610b276108e7565b5b6000610b3684828501610afd565b91505092915050565b600082825260208201905092915050565b7f53656e6420455448000000000000000000000000000000000000000000000000600082015250565b6000610b86600883610b3f565b9150610b9182610b50565b602082019050919050565b60006020820190508181036000830152610bb581610b79565b9050919050565b610bc581610965565b82525050565b610bd481610a47565b82525050565b610be3816108b3565b82525050565b610bf281610945565b82525050565b60e082016000820151610c0e6000850182610bbc565b506020820151610c216020850182610bbc565b506040820151610c346040850182610bcb565b506060820151610c476060850182610bbc565b506080820151610c5a6080850182610bda565b5060a0820151610c6d60a0850182610bda565b5060c0820151610c8060c0850182610be9565b50505050565b600060e082019050610c9b6000830184610bf8565b92915050565b6000604082019050610cb660008301856108bd565b610cc360208301846108bd565b9392505050565b7f496e76616c696420746f6b656e496e0000000000000000000000000000000000600082015250565b6000610d00600f83610b3f565b9150610d0b82610cca565b602082019050919050565b60006020820190508181036000830152610d2f81610cf3565b9050919050565b7f496e76616c696420746f6b656e4f757400000000000000000000000000000000600082015250565b6000610d6c601083610b3f565b9150610d7782610d36565b602082019050919050565b60006020820190508181036000830152610d9b81610d5f565b9050919050565b7f53616d6520746f6b656e00000000000000000000000000000000000000000000600082015250565b6000610dd8600a83610b3f565b9150610de382610da2565b602082019050919050565b60006020820190508181036000830152610e0781610dcb565b9050919050565b7f416d6f756e74206d757374206265203e20300000000000000000000000000000600082015250565b6000610e44601283610b3f565b9150610e4f82610e0e565b602082019050919050565b60006020820190508181036000830152610e7381610e37565b9050919050565b6000604082019050610e8f6000830185610977565b610e9c60208301846108bd565b9392505050565b60008115159050919050565b610eb881610ea3565b8114610ec357600080fd5b50565b600081519050610ed581610eaf565b92915050565b600060208284031215610ef157610ef06108e7565b5b6000610eff84828501610ec6565b9150509291505056fea26469706673582212208b08b24d2b6b4a431050e49d6dd63ba6ffd4f71d3a22c5e553b4706f1bdbbde964736f6c634300081c0033","opcodes":"PUSH1 0x80 PUSH1 0x40 MSTORE CALLVALUE DUP1 ISZERO PUSH1 0xF JUMPI PUSH1 0x0 DUP1 REVERT JUMPDEST POP PUSH2 0xF3E DUP1 PUSH2 0x1F PUSH1 0x0 CODECOPY PUSH1 0x0 RETURN INVALID PUSH1 0x80 PUSH1 0x40 MSTORE PUSH1 0x4 CALLDATASIZE LT PUSH2 0x59 JUMPI PUSH1 0x0 CALLDATALOAD PUSH1 0xE0 SHR DUP1 PUSH4 0x2F6B8143 EQ PUSH2 0x65 JUMPI DUP1 PUSH4 0x93ED5E4B EQ PUSH2 0x90 JUMPI DUP1 PUSH4 0xA85EF678 EQ PUSH2 0xC0 JUMPI DUP1 PUSH4 0xAD5C4648 EQ PUSH2 0xCA JUMPI DUP1 PUSH4 0xC31C9C07 EQ PUSH2 0xF5 JUMPI DUP1 PUSH4 0xC91305F5 EQ PUSH2 0x120 JUMPI PUSH2 0x60 JUMP JUMPDEST CALLDATASIZE PUSH2 0x60 JUMPI STOP JUMPDEST PUSH1 0x0 DUP1 REVERT JUMPDEST CALLVALUE DUP1 ISZERO PUSH2 0x71 JUMPI PUSH1 0x0 DUP1 REVERT JUMPDEST POP PUSH2 0x7A PUSH2 0x15D JUMP JUMPDEST PUSH1 0x40 MLOAD PUSH2 0x87 SWAP2 SWAP1 PUSH2 0x8CC JUMP JUMPDEST PUSH1 0x40 MLOAD DUP1 SWAP2 SUB SWAP1 RETURN JUMPDEST PUSH2 0xAA PUSH1 0x4 DUP1 CALLDATASIZE SUB DUP2 ADD SWAP1 PUSH2 0xA5 SWAP2 SWAP1 PUSH2 0x918 JUMP JUMPDEST PUSH2 0x1F7 JUMP JUMPDEST PUSH1 0x40 MLOAD PUSH2 0xB7 SWAP2 SWAP1 PUSH2 0x8CC JUMP JUMPDEST PUSH1 0x40 MLOAD DUP1 SWAP2 SUB SWAP1 RETURN JUMPDEST PUSH2 0xC8 PUSH2 0x40E JUMP JUMPDEST STOP JUMPDEST CALLVALUE DUP1 ISZERO PUSH2 0xD6 JUMPI PUSH1 0x0 DUP1 REVERT JUMPDEST POP PUSH2 0xDF PUSH2 0x4C8 JUMP JUMPDEST PUSH1 0x40 MLOAD PUSH2 0xEC SWAP2 SWAP1 PUSH2 0x986 JUMP JUMPDEST PUSH1 0x40 MLOAD DUP1 SWAP2 SUB SWAP1 RETURN JUMPDEST CALLVALUE DUP1 ISZERO PUSH2 0x101 JUMPI PUSH1 0x0 DUP1 REVERT JUMPDEST POP PUSH2 0x10A PUSH2 0x4E0 JUMP JUMPDEST PUSH1 0x40 MLOAD PUSH2 0x117 SWAP2 SWAP1 PUSH2 0xA00 JUMP JUMPDEST PUSH1 0x40 MLOAD DUP1 SWAP2 SUB SWAP1 RETURN JUMPDEST CALLVALUE DUP1 ISZERO PUSH2 0x12C JUMPI PUSH1 0x0 DUP1 REVERT JUMPDEST POP PUSH2 0x147 PUSH1 0x4 DUP1 CALLDATASIZE SUB DUP2 ADD SWAP1 PUSH2 0x142 SWAP2 SWAP1 PUSH2 0xA82 JUMP JUMPDEST PUSH2 0x4F8 JUMP JUMPDEST PUSH1 0x40 MLOAD PUSH2 0x154 SWAP2 SWAP1 PUSH2 0x8CC JUMP JUMPDEST PUSH1 0x40 MLOAD DUP1 SWAP2 SUB SWAP1 RETURN JUMPDEST PUSH1 0x0 DUP1 PUSH20 0xC02AAA39B223FE8D0A0E5C4F27EAD9083C756CC2 SWAP1 POP DUP1 PUSH20 0xFFFFFFFFFFFFFFFFFFFFFFFFFFFFFFFFFFFFFFFF AND PUSH4 0x70A08231 CALLER PUSH1 0x40 MLOAD DUP3 PUSH4 0xFFFFFFFF AND PUSH1 0xE0 SHL DUP2 MSTORE PUSH1 0x4 ADD PUSH2 0x1B0 SWAP2 SWAP1 PUSH2 0x986 JUMP JUMPDEST PUSH1 0x20 PUSH1 0x40 MLOAD DUP1 DUP4 SUB DUP2 DUP7 GAS STATICCALL ISZERO DUP1 ISZERO PUSH2 0x1CD JUMPI RETURNDATASIZE PUSH1 0x0 DUP1 RETURNDATACOPY RETURNDATASIZE PUSH1 0x0 REVERT JUMPDEST POP POP POP POP PUSH1 0x40 MLOAD RETURNDATASIZE PUSH1 0x1F NOT PUSH1 0x1F DUP3 ADD AND DUP3 ADD DUP1 PUSH1 0x40 MSTORE POP DUP2 ADD SWAP1 PUSH2 0x1F1 SWAP2 SWAP1 PUSH2 0xB12 JUMP JUMPDEST SWAP2 POP POP SWAP1 JUMP JUMPDEST PUSH1 0x0 DUP1 CALLVALUE GT PUSH2 0x23B JUMPI PUSH1 0x40 MLOAD PUSH32 0x8C379A000000000000000000000000000000000000000000000000000000000 DUP2 MSTORE PUSH1 0x4 ADD PUSH2 0x232 SWAP1 PUSH2 0xB9C JUMP JUMPDEST PUSH1 0x40 MLOAD DUP1 SWAP2 SUB SWAP1 REVERT JUMPDEST PUSH1 0x0 PUSH1 0x40 MLOAD DUP1 PUSH1 0xE0 ADD PUSH1 0x40 MSTORE DUP1 PUSH20 0xC02AAA39B223FE8D0A0E5C4F27EAD9083C756CC2 PUSH20 0xFFFFFFFFFFFFFFFFFFFFFFFFFFFFFFFFFFFFFFFF AND DUP2 MSTORE PUSH1 0x20 ADD PUSH20 0xC02AAA39B223FE8D0A0E5C4F27EAD9083C756CC2 PUSH20 0xFFFFFFFFFFFFFFFFFFFFFFFFFFFFFFFFFFFFFFFF AND DUP2 MSTORE PUSH1 0x20 ADD PUSH2 0xBB8 PUSH3 0xFFFFFF AND DUP2 MSTORE PUSH1 0x20 ADD CALLER PUSH20 0xFFFFFFFFFFFFFFFFFFFFFFFFFFFFFFFFFFFFFFFF AND DUP2 MSTORE PUSH1 0x20 ADD CALLVALUE DUP2 MSTORE PUSH1 0x20 ADD DUP5 DUP2 MSTORE PUSH1 0x20 ADD PUSH1 0x0 PUSH20 0xFFFFFFFFFFFFFFFFFFFFFFFFFFFFFFFFFFFFFFFF AND DUP2 MSTORE POP SWAP1 POP PUSH20 0xE592427A0AECE92DE3EDEE1F18E0157C05861564 PUSH20 0xFFFFFFFFFFFFFFFFFFFFFFFFFFFFFFFFFFFFFFFF AND PUSH4 0x4E45AAF CALLVALUE DUP4 PUSH1 0x40 MLOAD DUP4 PUSH4 0xFFFFFFFF AND PUSH1 0xE0 SHL DUP2 MSTORE PUSH1 0x4 ADD PUSH2 0x348 SWAP2 SWAP1 PUSH2 0xC86 JUMP JUMPDEST PUSH1 0x20 PUSH1 0x40 MLOAD DUP1 DUP4 SUB DUP2 DUP6 DUP9 GAS CALL ISZERO DUP1 ISZERO PUSH2 0x366 JUMPI RETURNDATASIZE PUSH1 0x0 DUP1 RETURNDATACOPY RETURNDATASIZE PUSH1 0x0 REVERT JUMPDEST POP POP POP POP POP PUSH1 0x40 MLOAD RETURNDATASIZE PUSH1 0x1F NOT PUSH1 0x1F DUP3 ADD AND DUP3 ADD DUP1 PUSH1 0x40 MSTORE POP DUP2 ADD SWAP1 PUSH2 0x38B SWAP2 SWAP1 PUSH2 0xB12 JUMP JUMPDEST SWAP2 POP PUSH20 0xC02AAA39B223FE8D0A0E5C4F27EAD9083C756CC2 PUSH20 0xFFFFFFFFFFFFFFFFFFFFFFFFFFFFFFFFFFFFFFFF AND CALLER PUSH20 0xFFFFFFFFFFFFFFFFFFFFFFFFFFFFFFFFFFFFFFFF AND PUSH32 0xDD36740E2A012D93061A0D99EAA9107860955DE4E90027D3CF465A055026C407 CALLVALUE DUP6 PUSH1 0x40 MLOAD PUSH2 0x400 SWAP3 SWAP2 SWAP1 PUSH2 0xCA1 JUMP JUMPDEST PUSH1 0x40 MLOAD DUP1 SWAP2 SUB SWAP1 LOG3 POP SWAP2 SWAP1 POP JUMP JUMPDEST PUSH1 0x0 CALLVALUE GT PUSH2 0x451 JUMPI PUSH1 0x40 MLOAD PUSH32 0x8C379A000000000000000000000000000000000000000000000000000000000 DUP2 MSTORE PUSH1 0x4 ADD PUSH2 0x448 SWAP1 PUSH2 0xB9C JUMP JUMPDEST PUSH1 0x40 MLOAD DUP1 SWAP2 SUB SWAP1 REVERT JUMPDEST PUSH20 0xC02AAA39B223FE8D0A0E5C4F27EAD9083C756CC2 PUSH20 0xFFFFFFFFFFFFFFFFFFFFFFFFFFFFFFFFFFFFFFFF AND PUSH4 0xD0E30DB0 CALLVALUE PUSH1 0x40 MLOAD DUP3 PUSH4 0xFFFFFFFF AND PUSH1 0xE0 SHL DUP2 MSTORE PUSH1 0x4 ADD PUSH1 0x0 PUSH1 0x40 MLOAD DUP1 DUP4 SUB DUP2 DUP6 DUP9 DUP1 EXTCODESIZE ISZERO DUP1 ISZERO PUSH2 0x4AD JUMPI PUSH1 0x0 DUP1 REVERT JUMPDEST POP GAS CALL ISZERO DUP1 ISZERO PUSH2 0x4C1 JUMPI RETURNDATASIZE PUSH1 0x0 DUP1 RETURNDATACOPY RETURNDATASIZE PUSH1 0x0 REVERT JUMPDEST POP POP POP POP POP JUMP JUMPDEST PUSH20 0xC02AAA39B223FE8D0A0E5C4F27EAD9083C756CC2 DUP2 JUMP JUMPDEST PUSH20 0xE592427A0AECE92DE3EDEE1F18E0157C05861564 DUP2 JUMP JUMPDEST PUSH1 0x0 DUP1 PUSH20 0xFFFFFFFFFFFFFFFFFFFFFFFFFFFFFFFFFFFFFFFF AND DUP7 PUSH20 0xFFFFFFFFFFFFFFFFFFFFFFFFFFFFFFFFFFFFFFFF AND SUB PUSH2 0x568 JUMPI PUSH1 0x40 MLOAD PUSH32 0x8C379A000000000000000000000000000000000000000000000000000000000 DUP2 MSTORE PUSH1 0x4 ADD PUSH2 0x55F SWAP1 PUSH2 0xD16 JUMP JUMPDEST PUSH1 0x40 MLOAD DUP1 SWAP2 SUB SWAP1 REVERT JUMPDEST PUSH1 0x0 PUSH20 0xFFFFFFFFFFFFFFFFFFFFFFFFFFFFFFFFFFFFFFFF AND DUP6 PUSH20 0xFFFFFFFFFFFFFFFFFFFFFFFFFFFFFFFFFFFFFFFF AND SUB PUSH2 0x5D7 JUMPI PUSH1 0x40 MLOAD PUSH32 0x8C379A000000000000000000000000000000000000000000000000000000000 DUP2 MSTORE PUSH1 0x4 ADD PUSH2 0x5CE SWAP1 PUSH2 0xD82 JUMP JUMPDEST PUSH1 0x40 MLOAD DUP1 SWAP2 SUB SWAP1 REVERT JUMPDEST DUP5 PUSH20 0xFFFFFFFFFFFFFFFFFFFFFFFFFFFFFFFFFFFFFFFF AND DUP7 PUSH20 0xFFFFFFFFFFFFFFFFFFFFFFFFFFFFFFFFFFFFFFFF AND SUB PUSH2 0x645 JUMPI PUSH1 0x40 MLOAD PUSH32 0x8C379A000000000000000000000000000000000000000000000000000000000 DUP2 MSTORE PUSH1 0x4 ADD PUSH2 0x63C SWAP1 PUSH2 0xDEE JUMP JUMPDEST PUSH1 0x40 MLOAD DUP1 SWAP2 SUB SWAP1 REVERT JUMPDEST PUSH1 0x0 DUP4 GT PUSH2 0x688 JUMPI PUSH1 0x40 MLOAD PUSH32 0x8C379A000000000000000000000000000000000000000000000000000000000 DUP2 MSTORE PUSH1 0x4 ADD PUSH2 0x67F SWAP1 PUSH2 0xE5A JUMP JUMPDEST PUSH1 0x40 MLOAD DUP1 SWAP2 SUB SWAP1 REVERT JUMPDEST DUP6 PUSH20 0xFFFFFFFFFFFFFFFFFFFFFFFFFFFFFFFFFFFFFFFF AND PUSH4 0x95EA7B3 PUSH20 0xE592427A0AECE92DE3EDEE1F18E0157C05861564 DUP6 PUSH1 0x40 MLOAD DUP4 PUSH4 0xFFFFFFFF AND PUSH1 0xE0 SHL DUP2 MSTORE PUSH1 0x4 ADD PUSH2 0x6D7 SWAP3 SWAP2 SWAP1 PUSH2 0xE7A JUMP JUMPDEST PUSH1 0x20 PUSH1 0x40 MLOAD DUP1 DUP4 SUB DUP2 PUSH1 0x0 DUP8 GAS CALL ISZERO DUP1 ISZERO PUSH2 0x6F6 JUMPI RETURNDATASIZE PUSH1 0x0 DUP1 RETURNDATACOPY RETURNDATASIZE PUSH1 0x0 REVERT JUMPDEST POP POP POP POP PUSH1 0x40 MLOAD RETURNDATASIZE PUSH1 0x1F NOT PUSH1 0x1F DUP3 ADD AND DUP3 ADD DUP1 PUSH1 0x40 MSTORE POP DUP2 ADD SWAP1 PUSH2 0x71A SWAP2 SWAP1 PUSH2 0xEDB JUMP JUMPDEST POP PUSH1 0x0 PUSH1 0x40 MLOAD DUP1 PUSH1 0xE0 ADD PUSH1 0x40 MSTORE DUP1 DUP9 PUSH20 0xFFFFFFFFFFFFFFFFFFFFFFFFFFFFFFFFFFFFFFFF AND DUP2 MSTORE PUSH1 0x20 ADD DUP8 PUSH20 0xFFFFFFFFFFFFFFFFFFFFFFFFFFFFFFFFFFFFFFFF AND DUP2 MSTORE PUSH1 0x20 ADD DUP7 PUSH3 0xFFFFFF AND DUP2 MSTORE PUSH1 0x20 ADD CALLER PUSH20 0xFFFFFFFFFFFFFFFFFFFFFFFFFFFFFFFFFFFFFFFF AND DUP2 MSTORE PUSH1 0x20 ADD DUP6 DUP2 MSTORE PUSH1 0x20 ADD DUP5 DUP2 MSTORE PUSH1 0x20 ADD PUSH1 0x0 PUSH20 0xFFFFFFFFFFFFFFFFFFFFFFFFFFFFFFFFFFFFFFFF AND DUP2 MSTORE POP SWAP1 POP PUSH20 0xE592427A0AECE92DE3EDEE1F18E0157C05861564 PUSH20 0xFFFFFFFFFFFFFFFFFFFFFFFFFFFFFFFFFFFFFFFF AND PUSH4 0x4E45AAF DUP3 PUSH1 0x40 MLOAD DUP3 PUSH4 0xFFFFFFFF AND PUSH1 0xE0 SHL DUP2 MSTORE PUSH1 0x4 ADD PUSH2 0x7FD SWAP2 SWAP1 PUSH2 0xC86 JUMP JUMPDEST PUSH1 0x20 PUSH1 0x40 MLOAD DUP1 DUP4 SUB DUP2 PUSH1 0x0 DUP8 GAS CALL ISZERO DUP1 ISZERO PUSH2 0x81C JUMPI RETURNDATASIZE PUSH1 0x0 DUP1 RETURNDATACOPY RETURNDATASIZE PUSH1 0x0 REVERT JUMPDEST POP POP POP POP PUSH1 0x40 MLOAD RETURNDATASIZE PUSH1 0x1F NOT PUSH1 0x1F DUP3 ADD AND DUP3 ADD DUP1 PUSH1 0x40 MSTORE POP DUP2 ADD SWAP1 PUSH2 0x840 SWAP2 SWAP1 PUSH2 0xB12 JUMP JUMPDEST SWAP2 POP DUP6 PUSH20 0xFFFFFFFFFFFFFFFFFFFFFFFFFFFFFFFFFFFFFFFF AND CALLER PUSH20 0xFFFFFFFFFFFFFFFFFFFFFFFFFFFFFFFFFFFFFFFF AND PUSH32 0xDD36740E2A012D93061A0D99EAA9107860955DE4E90027D3CF465A055026C407 DUP7 DUP6 PUSH1 0x40 MLOAD PUSH2 0x8A1 SWAP3 SWAP2 SWAP1 PUSH2 0xCA1 JUMP JUMPDEST PUSH1 0x40 MLOAD DUP1 SWAP2 SUB SWAP1 LOG3 POP SWAP6 SWAP5 POP POP POP POP POP JUMP JUMPDEST PUSH1 0x0 DUP2 SWAP1 POP SWAP2 SWAP1 POP JUMP JUMPDEST PUSH2 0x8C6 DUP2 PUSH2 0x8B3 JUMP JUMPDEST DUP3 MSTORE POP POP JUMP JUMPDEST PUSH1 0x0 PUSH1 0x20 DUP3 ADD SWAP1 POP PUSH2 0x8E1 PUSH1 0x0 DUP4 ADD DUP5 PUSH2 0x8BD JUMP JUMPDEST SWAP3 SWAP2 POP POP JUMP JUMPDEST PUSH1 0x0 DUP1 REVERT JUMPDEST PUSH2 0x8F5 DUP2 PUSH2 0x8B3 JUMP JUMPDEST DUP2 EQ PUSH2 0x900 JUMPI PUSH1 0x0 DUP1 REVERT JUMPDEST POP JUMP JUMPDEST PUSH1 0x0 DUP2 CALLDATALOAD SWAP1 POP PUSH2 0x912 DUP2 PUSH2 0x8EC JUMP JUMPDEST SWAP3 SWAP2 POP POP JUMP JUMPDEST PUSH1 0x0 PUSH1 0x20 DUP3 DUP5 SUB SLT ISZERO PUSH2 0x92E JUMPI PUSH2 0x92D PUSH2 0x8E7 JUMP JUMPDEST JUMPDEST PUSH1 0x0 PUSH2 0x93C DUP5 DUP3 DUP6 ADD PUSH2 0x903 JUMP JUMPDEST SWAP2 POP POP SWAP3 SWAP2 POP POP JUMP JUMPDEST PUSH1 0x0 PUSH20 0xFFFFFFFFFFFFFFFFFFFFFFFFFFFFFFFFFFFFFFFF DUP3 AND SWAP1 POP SWAP2 SWAP1 POP JUMP JUMPDEST PUSH1 0x0 PUSH2 0x970 DUP3 PUSH2 0x945 JUMP JUMPDEST SWAP1 POP SWAP2 SWAP1 POP JUMP JUMPDEST PUSH2 0x980 DUP2 PUSH2 0x965 JUMP JUMPDEST DUP3 MSTORE POP POP JUMP JUMPDEST PUSH1 0x0 PUSH1 0x20 DUP3 ADD SWAP1 POP PUSH2 0x99B PUSH1 0x0 DUP4 ADD DUP5 PUSH2 0x977 JUMP JUMPDEST SWAP3 SWAP2 POP POP JUMP JUMPDEST PUSH1 0x0 DUP2 SWAP1 POP SWAP2 SWAP1 POP JUMP JUMPDEST PUSH1 0x0 PUSH2 0x9C6 PUSH2 0x9C1 PUSH2 0x9BC DUP5 PUSH2 0x945 JUMP JUMPDEST PUSH2 0x9A1 JUMP JUMPDEST PUSH2 0x945 JUMP JUMPDEST SWAP1 POP SWAP2 SWAP1 POP JUMP JUMPDEST PUSH1 0x0 PUSH2 0x9D8 DUP3 PUSH2 0x9AB JUMP JUMPDEST SWAP1 POP SWAP2 SWAP1 POP JUMP JUMPDEST PUSH1 0x0 PUSH2 0x9EA DUP3 PUSH2 0x9CD JUMP JUMPDEST SWAP1 POP SWAP2 SWAP1 POP JUMP JUMPDEST PUSH2 0x9FA DUP2 PUSH2 0x9DF JUMP JUMPDEST DUP3 MSTORE POP POP JUMP JUMPDEST PUSH1 0x0 PUSH1 0x20 DUP3 ADD SWAP1 POP PUSH2 0xA15 PUSH1 0x0 DUP4 ADD DUP5 PUSH2 0x9F1 JUMP JUMPDEST SWAP3 SWAP2 POP POP JUMP JUMPDEST PUSH2 0xA24 DUP2 PUSH2 0x965 JUMP JUMPDEST DUP2 EQ PUSH2 0xA2F JUMPI PUSH1 0x0 DUP1 REVERT JUMPDEST POP JUMP JUMPDEST PUSH1 0x0 DUP2 CALLDATALOAD SWAP1 POP PUSH2 0xA41 DUP2 PUSH2 0xA1B JUMP JUMPDEST SWAP3 SWAP2 POP POP JUMP JUMPDEST PUSH1 0x0 PUSH3 0xFFFFFF DUP3 AND SWAP1 POP SWAP2 SWAP1 POP JUMP JUMPDEST PUSH2 0xA5F DUP2 PUSH2 0xA47 JUMP JUMPDEST DUP2 EQ PUSH2 0xA6A JUMPI PUSH1 0x0 DUP1 REVERT JUMPDEST POP JUMP JUMPDEST PUSH1 0x0 DUP2 CALLDATALOAD SWAP1 POP PUSH2 0xA7C DUP2 PUSH2 0xA56 JUMP JUMPDEST SWAP3 SWAP2 POP POP JUMP JUMPDEST PUSH1 0x0 DUP1 PUSH1 0x0 DUP1 PUSH1 0x0 PUSH1 0xA0 DUP7 DUP9 SUB SLT ISZERO PUSH2 0xA9E JUMPI PUSH2 0xA9D PUSH2 0x8E7 JUMP JUMPDEST JUMPDEST PUSH1 0x0 PUSH2 0xAAC DUP9 DUP3 DUP10 ADD PUSH2 0xA32 JUMP JUMPDEST SWAP6 POP POP PUSH1 0x20 PUSH2 0xABD DUP9 DUP3 DUP10 ADD PUSH2 0xA32 JUMP JUMPDEST SWAP5 POP POP PUSH1 0x40 PUSH2 0xACE DUP9 DUP3 DUP10 ADD PUSH2 0xA6D JUMP JUMPDEST SWAP4 POP POP PUSH1 0x60 PUSH2 0xADF DUP9 DUP3 DUP10 ADD PUSH2 0x903 JUMP JUMPDEST SWAP3 POP POP PUSH1 0x80 PUSH2 0xAF0 DUP9 DUP3 DUP10 ADD PUSH2 0x903 JUMP JUMPDEST SWAP2 POP POP SWAP3 SWAP6 POP SWAP3 SWAP6 SWAP1 SWAP4 POP JUMP JUMPDEST PUSH1 0x0 DUP2 MLOAD SWAP1 POP PUSH2 0xB0C DUP2 PUSH2 0x8EC JUMP JUMPDEST SWAP3 SWAP2 POP POP JUMP JUMPDEST PUSH1 0x0 PUSH1 0x20 DUP3 DUP5 SUB SLT ISZERO PUSH2 0xB28 JUMPI PUSH2 0xB27 PUSH2 0x8E7 JUMP JUMPDEST JUMPDEST PUSH1 0x0 PUSH2 0xB36 DUP5 DUP3 DUP6 ADD PUSH2 0xAFD JUMP JUMPDEST SWAP2 POP POP SWAP3 SWAP2 POP POP JUMP JUMPDEST PUSH1 0x0 DUP3 DUP3 MSTORE PUSH1 0x20 DUP3 ADD SWAP1 POP SWAP3 SWAP2 POP POP JUMP JUMPDEST PUSH32 0x53656E6420455448000000000000000000000000000000000000000000000000 PUSH1 0x0 DUP3 ADD MSTORE POP JUMP JUMPDEST PUSH1 0x0 PUSH2 0xB86 PUSH1 0x8 DUP4 PUSH2 0xB3F JUMP JUMPDEST SWAP2 POP PUSH2 0xB91 DUP3 PUSH2 0xB50 JUMP JUMPDEST PUSH1 0x20 DUP3 ADD SWAP1 POP SWAP2 SWAP1 POP JUMP JUMPDEST PUSH1 0x0 PUSH1 0x20 DUP3 ADD SWAP1 POP DUP2 DUP2 SUB PUSH1 0x0 DUP4 ADD MSTORE PUSH2 0xBB5 DUP2 PUSH2 0xB79 JUMP JUMPDEST SWAP1 POP SWAP2 SWAP1 POP JUMP JUMPDEST PUSH2 0xBC5 DUP2 PUSH2 0x965 JUMP JUMPDEST DUP3 MSTORE POP POP JUMP JUMPDEST PUSH2 0xBD4 DUP2 PUSH2 0xA47 JUMP JUMPDEST DUP3 MSTORE POP POP JUMP JUMPDEST PUSH2 0xBE3 DUP2 PUSH2 0x8B3 JUMP JUMPDEST DUP3 MSTORE POP POP JUMP JUMPDEST PUSH2 0xBF2 DUP2 PUSH2 0x945 JUMP JUMPDEST DUP3 MSTORE POP POP JUMP JUMPDEST PUSH1 0xE0 DUP3 ADD PUSH1 0x0 DUP3 ADD MLOAD PUSH2 0xC0E PUSH1 0x0 DUP6 ADD DUP3 PUSH2 0xBBC JUMP JUMPDEST POP PUSH1 0x20 DUP3 ADD MLOAD PUSH2 0xC21 PUSH1 0x20 DUP6 ADD DUP3 PUSH2 0xBBC JUMP JUMPDEST POP PUSH1 0x40 DUP3 ADD MLOAD PUSH2 0xC34 PUSH1 0x40 DUP6 ADD DUP3 PUSH2 0xBCB JUMP JUMPDEST POP PUSH1 0x60 DUP3 ADD MLOAD PUSH2 0xC47 PUSH1 0x60 DUP6 ADD DUP3 PUSH2 0xBBC JUMP JUMPDEST POP PUSH1 0x80 DUP3 ADD MLOAD PUSH2 0xC5A PUSH1 0x80 DUP6 ADD DUP3 PUSH2 0xBDA JUMP JUMPDEST POP PUSH1 0xA0 DUP3 ADD MLOAD PUSH2 0xC6D PUSH1 0xA0 DUP6 ADD DUP3 PUSH2 0xBDA JUMP JUMPDEST POP PUSH1 0xC0 DUP3 ADD MLOAD PUSH2 0xC80 PUSH1 0xC0 DUP6 ADD DUP3 PUSH2 0xBE9 JUMP JUMPDEST POP POP POP POP JUMP JUMPDEST PUSH1 0x0 PUSH1 0xE0 DUP3 ADD SWAP1 POP PUSH2 0xC9B PUSH1 0x0 DUP4 ADD DUP5 PUSH2 0xBF8 JUMP JUMPDEST SWAP3 SWAP2 POP POP JUMP JUMPDEST PUSH1 0x0 PUSH1 0x40 DUP3 ADD SWAP1 POP PUSH2 0xCB6 PUSH1 0x0 DUP4 ADD DUP6 PUSH2 0x8BD JUMP JUMPDEST PUSH2 0xCC3 PUSH1 0x20 DUP4 ADD DUP5 PUSH2 0x8BD JUMP JUMPDEST SWAP4 SWAP3 POP POP POP JUMP JUMPDEST PUSH32 0x496E76616C696420746F6B656E496E0000000000000000000000000000000000 PUSH1 0x0 DUP3 ADD MSTORE POP JUMP JUMPDEST PUSH1 0x0 PUSH2 0xD00 PUSH1 0xF DUP4 PUSH2 0xB3F JUMP JUMPDEST SWAP2 POP PUSH2 0xD0B DUP3 PUSH2 0xCCA JUMP JUMPDEST PUSH1 0x20 DUP3 ADD SWAP1 POP SWAP2 SWAP1 POP JUMP JUMPDEST PUSH1 0x0 PUSH1 0x20 DUP3 ADD SWAP1 POP DUP2 DUP2 SUB PUSH1 0x0 DUP4 ADD MSTORE PUSH2 0xD2F DUP2 PUSH2 0xCF3 JUMP JUMPDEST SWAP1 POP SWAP2 SWAP1 POP JUMP JUMPDEST PUSH32 0x496E76616C696420746F6B656E4F757400000000000000000000000000000000 PUSH1 0x0 DUP3 ADD MSTORE POP JUMP JUMPDEST PUSH1 0x0 PUSH2 0xD6C PUSH1 0x10 DUP4 PUSH2 0xB3F JUMP JUMPDEST SWAP2 POP PUSH2 0xD77 DUP3 PUSH2 0xD36 JUMP JUMPDEST PUSH1 0x20 DUP3 ADD SWAP1 POP SWAP2 SWAP1 POP JUMP JUMPDEST PUSH1 0x0 PUSH1 0x20 DUP3 ADD SWAP1 POP DUP2 DUP2 SUB PUSH1 0x0 DUP4 ADD MSTORE PUSH2 0xD9B DUP2 PUSH2 0xD5F JUMP JUMPDEST SWAP1 POP SWAP2 SWAP1 POP JUMP JUMPDEST PUSH32 0x53616D6520746F6B656E00000000000000000000000000000000000000000000 PUSH1 0x0 DUP3 ADD MSTORE POP JUMP JUMPDEST PUSH1 0x0 PUSH2 0xDD8 PUSH1 0xA DUP4 PUSH2 0xB3F JUMP JUMPDEST SWAP2 POP PUSH2 0xDE3 DUP3 PUSH2 0xDA2 JUMP JUMPDEST PUSH1 0x20 DUP3 ADD SWAP1 POP SWAP2 SWAP1 POP JUMP JUMPDEST PUSH1 0x0 PUSH1 0x20 DUP3 ADD SWAP1 POP DUP2 DUP2 SUB PUSH1 0x0 DUP4 ADD MSTORE PUSH2 0xE07 DUP2 PUSH2 0xDCB JUMP JUMPDEST SWAP1 POP SWAP2 SWAP1 POP JUMP JUMPDEST PUSH32 0x416D6F756E74206D757374206265203E20300000000000000000000000000000 PUSH1 0x0 DUP3 ADD MSTORE POP JUMP JUMPDEST PUSH1 0x0 PUSH2 0xE44 PUSH1 0x12 DUP4 PUSH2 0xB3F JUMP JUMPDEST SWAP2 POP PUSH2 0xE4F DUP3 PUSH2 0xE0E JUMP JUMPDEST PUSH1 0x20 DUP3 ADD SWAP1 POP SWAP2 SWAP1 POP JUMP JUMPDEST PUSH1 0x0 PUSH1 0x20 DUP3 ADD SWAP1 POP DUP2 DUP2 SUB PUSH1 0x0 DUP4 ADD MSTORE PUSH2 0xE73 DUP2 PUSH2 0xE37 JUMP JUMPDEST SWAP1 POP SWAP2 SWAP1 POP JUMP JUMPDEST PUSH1 0x0 PUSH1 0x40 DUP3 ADD SWAP1 POP PUSH2 0xE8F PUSH1 0x0 DUP4 ADD DUP6 PUSH2 0x977 JUMP JUMPDEST PUSH2 0xE9C PUSH1 0x20 DUP4 ADD DUP5 PUSH2 0x8BD JUMP JUMPDEST SWAP4 SWAP3 POP POP POP JUMP JUMPDEST PUSH1 0x0 DUP2 ISZERO ISZERO SWAP1 POP SWAP2 SWAP1 POP JUMP JUMPDEST PUSH2 0xEB8 DUP2 PUSH2 0xEA3 JUMP JUMPDEST DUP2 EQ PUSH2 0xEC3 JUMPI PUSH1 0x0 DUP1 REVERT JUMPDEST POP JUMP JUMPDEST PUSH1 0x0 DUP2 MLOAD SWAP1 POP PUSH2 0xED5 DUP2 PUSH2 0xEAF JUMP JUMPDEST SWAP3 SWAP2 POP POP JUMP JUMPDEST PUSH1 0x0 PUSH1 0x20 DUP3 DUP5 SUB SLT ISZERO PUSH2 0xEF1 JUMPI PUSH2 0xEF0 PUSH2 0x8E7 JUMP JUMPDEST JUMPDEST PUSH1 0x0 PUSH2 0xEFF DUP5 DUP3 DUP6 ADD PUSH2 0xEC6 JUMP JUMPDEST SWAP2 POP POP SWAP3 SWAP2 POP POP JUMP INVALID LOG2 PUSH5 0x6970667358 0x22 SLT KECCAK256 DUP12 ADDMOD 0xB2 0x4D 0x2B PUSH12 0x4A431050E49D6DD63BA6FFD4 0xF7 SAR GASPRICE 0x22 0xC5 0xE5 MSTORE8 0xB4 PUSH17 0x6F1BDBBDE964736F6C634300081C003300 "},"methodIdentifiers":{"WETH()":"ad5c4648","swapETHForWETH(uint256)":"93ed5e4b","swapRouter()":"c31c9c07","swapTokenForToken(address,address,uint24,uint256,uint256)":"c91305f5","wethBalance()":"2f6b8143","wrapETH()":"a85ef678"}}}}}