{"contracts/UniswapV3ETHSwapper copy.sol":{"UniswapV3ETHSwapper":{"abi":[{"anonymous":false,"inputs":[{"indexed":true,"internalType":"address","name":"user","type":"address"},{"indexed":true,"internalType":"address","name":"tokenOut","type":"address"},{"indexed":false,"internalType":"uint256","name":"ethIn","type":"uint256"},{"indexed":false,"internalType":"uint256","name":"amountOut","type":"uint256"}],"name":"SwapExecuted","type":"event"},{"inputs":[],"name":"WETH","outputs":[{"internalType":"address","name":"","type":"address"}],"stateMutability":"view","type":"function"},{"inputs":[{"internalType":"uint256","name":"_amountOutMin","type":"uint256"}],"name":"swapETHForWETH","outputs":[{"internalType":"uint256","name":"amountOut","type":"uint256"}],"stateMutability":"payable","type":"function"},{"inputs":[],"name":"swapRouter","outputs":[{"internalType":"contract ISwapRouter","name":"","type":"address"}],"stateMutability":"view","type":"function"},{"inputs":[{"internalType":"address","name":"_tokenIn","type":"address"},{"internalType":"address","name":"_tokenOut","type":"address"},{"internalType":"uint24","name":"_fee","type":"uint24"},{"internalType":"uint256","name":"_amountIn","type":"uint256"},{"internalType":"uint256","name":"_amountOutMin","type":"uint256"}],"name":"swapTokenForToken","outputs":[{"internalType":"uint256","name":"amountOut","type":"uint256"}],"stateMutability":"nonpayable","type":"function"},{"inputs":[],"name":"wethBalance","outputs":[{"internalType":"uint256","name":"","type":"uint256"}],"stateMutability":"view","type":"function"},{"inputs":[],"name":"wrapETH","outputs":[],"stateMutability":"payable","type":"function"},{"stateMutability":"payable","type":"receive"}],"evm":{"bytecode":{"linkReferences":{},"object":"6080604052348015600f57600080fd5b506110ac8061001f6000396000f3fe6080604052600436106100595760003560e01c80632f6b81431461006557806393ed5e4b14610090578063a85ef678146100c0578063ad5c4648146100ca578063c31c9c07146100f5578063c91305f51461012057610060565b3661006057005b600080fd5b34801561007157600080fd5b5061007a61015d565b60405161008791906109ee565b60405180910390f35b6100aa60048036038101906100a59190610a3a565b6101f7565b6040516100b791906109ee565b60405180910390f35b6100c8610415565b005b3480156100d657600080fd5b506100df610562565b6040516100ec9190610aa8565b60405180910390f35b34801561010157600080fd5b5061010a61057a565b6040516101179190610b22565b60405180910390f35b34801561012c57600080fd5b5061014760048036038101906101429190610ba4565b610592565b60405161015491906109ee565b60405180910390f35b60008073c02aaa39b223fe8d0a0e5c4f27ead9083c756cc290508073ffffffffffffffffffffffffffffffffffffffff166370a08231336040518263ffffffff1660e01b81526004016101b09190610aa8565b602060405180830381865afa1580156101cd573d6000803e3d6000fd5b505050506040513d601f19601f820116820180604052508101906101f19190610c34565b91505090565b600080341161023b576040517f08c379a000000000000000000000000000000000000000000000000000000000815260040161023290610cbe565b60405180910390fd5b600060405180610100016040528073c02aaa39b223fe8d0a0e5c4f27ead9083c756cc273ffffffffffffffffffffffffffffffffffffffff16815260200173c02aaa39b223fe8d0a0e5c4f27ead9083c756cc273ffffffffffffffffffffffffffffffffffffffff168152602001610bb862ffffff1681526020013373ffffffffffffffffffffffffffffffffffffffff168152602001428152602001348152602001848152602001600073ffffffffffffffffffffffffffffffffffffffff16815250905073e592427a0aece92de3edee1f18e0157c0586156473ffffffffffffffffffffffffffffffffffffffff1663414bf38934836040518363ffffffff1660e01b815260040161034f9190610dbc565b60206040518083038185885af115801561036d573d6000803e3d6000fd5b50505050506040513d601f19601f820116820180604052508101906103929190610c34565b915073c02aaa39b223fe8d0a0e5c4f27ead9083c756cc273ffffffffffffffffffffffffffffffffffffffff163373ffffffffffffffffffffffffffffffffffffffff167fdd36740e2a012d93061a0d99eaa9107860955de4e90027d3cf465a055026c4073485604051610407929190610dd8565b60405180910390a350919050565b60003411610458576040517f08c379a000000000000000000000000000000000000000000000000000000000815260040161044f90610cbe565b60405180910390fd5b73c02aaa39b223fe8d0a0e5c4f27ead9083c756cc273ffffffffffffffffffffffffffffffffffffffff1663d0e30db0346040518263ffffffff1660e01b81526004016000604051808303818588803b1580156104b457600080fd5b505af11580156104c8573d6000803e3d6000fd5b505050505073c02aaa39b223fe8d0a0e5c4f27ead9083c756cc273ffffffffffffffffffffffffffffffffffffffff1663a9059cbb33346040518363ffffffff1660e01b815260040161051c929190610e01565b6020604051808303816000875af115801561053b573d6000803e3d6000fd5b505050506040513d601f19601f8201168201806040525081019061055f9190610e62565b50565b73c02aaa39b223fe8d0a0e5c4f27ead9083c756cc281565b73e592427a0aece92de3edee1f18e0157c0586156481565b60008073ffffffffffffffffffffffffffffffffffffffff168673ffffffffffffffffffffffffffffffffffffffff1603610602576040517f08c379a00000000000000000000000000000000000000000000000000000000081526004016105f990610edb565b60405180910390fd5b600073ffffffffffffffffffffffffffffffffffffffff168573ffffffffffffffffffffffffffffffffffffffff1603610671576040517f08c379a000000000000000000000000000000000000000000000000000000000815260040161066890610f47565b60405180910390fd5b8473ffffffffffffffffffffffffffffffffffffffff168673ffffffffffffffffffffffffffffffffffffffff16036106df576040517f08c379a00000000000000000000000000000000000000000000000000000000081526004016106d690610fb3565b60405180910390fd5b60008311610722576040517f08c379a00000000000000000000000000000000000000000000000000000000081526004016107199061101f565b60405180910390fd5b8573ffffffffffffffffffffffffffffffffffffffff166323b872dd3330866040518463ffffffff1660e01b815260040161075f9392919061103f565b6020604051808303816000875af115801561077e573d6000803e3d6000fd5b505050506040513d601f19601f820116820180604052508101906107a29190610e62565b508573ffffffffffffffffffffffffffffffffffffffff1663095ea7b373e592427a0aece92de3edee1f18e0157c05861564856040518363ffffffff1660e01b81526004016107f2929190610e01565b6020604051808303816000875af1158015610811573d6000803e3d6000fd5b505050506040513d601f19601f820116820180604052508101906108359190610e62565b5060006040518061010001604052808873ffffffffffffffffffffffffffffffffffffffff1681526020018773ffffffffffffffffffffffffffffffffffffffff1681526020018662ffffff1681526020013373ffffffffffffffffffffffffffffffffffffffff168152602001428152602001858152602001848152602001600073ffffffffffffffffffffffffffffffffffffffff16815250905073e592427a0aece92de3edee1f18e0157c0586156473ffffffffffffffffffffffffffffffffffffffff1663414bf389826040518263ffffffff1660e01b815260040161091f9190610dbc565b6020604051808303816000875af115801561093e573d6000803e3d6000fd5b505050506040513d601f19601f820116820180604052508101906109629190610c34565b91508573ffffffffffffffffffffffffffffffffffffffff163373ffffffffffffffffffffffffffffffffffffffff167fdd36740e2a012d93061a0d99eaa9107860955de4e90027d3cf465a055026c40786856040516109c3929190610dd8565b60405180910390a35095945050505050565b6000819050919050565b6109e8816109d5565b82525050565b6000602082019050610a0360008301846109df565b92915050565b600080fd5b610a17816109d5565b8114610a2257600080fd5b50565b600081359050610a3481610a0e565b92915050565b600060208284031215610a5057610a4f610a09565b5b6000610a5e84828501610a25565b91505092915050565b600073ffffffffffffffffffffffffffffffffffffffff82169050919050565b6000610a9282610a67565b9050919050565b610aa281610a87565b82525050565b6000602082019050610abd6000830184610a99565b92915050565b6000819050919050565b6000610ae8610ae3610ade84610a67565b610ac3565b610a67565b9050919050565b6000610afa82610acd565b9050919050565b6000610b0c82610aef565b9050919050565b610b1c81610b01565b82525050565b6000602082019050610b376000830184610b13565b92915050565b610b4681610a87565b8114610b5157600080fd5b50565b600081359050610b6381610b3d565b92915050565b600062ffffff82169050919050565b610b8181610b69565b8114610b8c57600080fd5b50565b600081359050610b9e81610b78565b92915050565b600080600080600060a08688031215610bc057610bbf610a09565b5b6000610bce88828901610b54565b9550506020610bdf88828901610b54565b9450506040610bf088828901610b8f565b9350506060610c0188828901610a25565b9250506080610c1288828901610a25565b9150509295509295909350565b600081519050610c2e81610a0e565b92915050565b600060208284031215610c4a57610c49610a09565b5b6000610c5884828501610c1f565b91505092915050565b600082825260208201905092915050565b7f53656e6420455448000000000000000000000000000000000000000000000000600082015250565b6000610ca8600883610c61565b9150610cb382610c72565b602082019050919050565b60006020820190508181036000830152610cd781610c9b565b9050919050565b610ce781610a87565b82525050565b610cf681610b69565b82525050565b610d05816109d5565b82525050565b610d1481610a67565b82525050565b61010082016000820151610d316000850182610cde565b506020820151610d446020850182610cde565b506040820151610d576040850182610ced565b506060820151610d6a6060850182610cde565b506080820151610d7d6080850182610cfc565b5060a0820151610d9060a0850182610cfc565b5060c0820151610da360c0850182610cfc565b5060e0820151610db660e0850182610d0b565b50505050565b600061010082019050610dd26000830184610d1a565b92915050565b6000604082019050610ded60008301856109df565b610dfa60208301846109df565b9392505050565b6000604082019050610e166000830185610a99565b610e2360208301846109df565b9392505050565b60008115159050919050565b610e3f81610e2a565b8114610e4a57600080fd5b50565b600081519050610e5c81610e36565b92915050565b600060208284031215610e7857610e77610a09565b5b6000610e8684828501610e4d565b91505092915050565b7f496e76616c696420746f6b656e496e0000000000000000000000000000000000600082015250565b6000610ec5600f83610c61565b9150610ed082610e8f565b602082019050919050565b60006020820190508181036000830152610ef481610eb8565b9050919050565b7f496e76616c696420746f6b656e4f757400000000000000000000000000000000600082015250565b6000610f31601083610c61565b9150610f3c82610efb565b602082019050919050565b60006020820190508181036000830152610f6081610f24565b9050919050565b7f53616d6520746f6b656e00000000000000000000000000000000000000000000600082015250565b6000610f9d600a83610c61565b9150610fa882610f67565b602082019050919050565b60006020820190508181036000830152610fcc81610f90565b9050919050565b7f416d6f756e74206d757374206265203e20300000000000000000000000000000600082015250565b6000611009601283610c61565b915061101482610fd3565b602082019050919050565b6000602082019050818103600083015261103881610ffc565b9050919050565b60006060820190506110546000830186610a99565b6110616020830185610a99565b61106e60408301846109df565b94935050505056fea2646970667358221220b50807986f5ff8facd0e8909e75d7a3a55c0652c0c0552b7da5196e2a16882f964736f6c634300081c0033","opcodes":"PUSH1 0x80 PUSH1 0x40 MSTORE CALLVALUE DUP1 ISZERO PUSH1 0xF JUMPI PUSH1 0x0 DUP1 REVERT JUMPDEST POP PUSH2 0x10AC DUP1 PUSH2 0x1F PUSH1 0x0 CODECOPY PUSH1 0x0 RETURN INVALID PUSH1 0x80 PUSH1 0x40 MSTORE PUSH1 0x4 CALLDATASIZE LT PUSH2 0x59 JUMPI PUSH1 0x0 CALLDATALOAD PUSH1 0xE0 SHR DUP1 PUSH4 0x2F6B8143 EQ PUSH2 0x65 JUMPI DUP1 PUSH4 0x93ED5E4B EQ PUSH2 0x90 JUMPI DUP1 PUSH4 0xA85EF678 EQ PUSH2 0xC0 JUMPI DUP1 PUSH4 0xAD5C4648 EQ PUSH2 0xCA JUMPI DUP1 PUSH4 0xC31C9C07 EQ PUSH2 0xF5 JUMPI DUP1 PUSH4 0xC91305F5 EQ PUSH2 0x120 JUMPI PUSH2 0x60 JUMP JUMPDEST CALLDATASIZE PUSH2 0x60 JUMPI STOP JUMPDEST PUSH1 0x0 DUP1 REVERT JUMPDEST CALLVALUE DUP1 ISZERO PUSH2 0x71 JUMPI PUSH1 0x0 DUP1 REVERT JUMPDEST POP PUSH2 0x7A PUSH2 0x15D JUMP JUMPDEST PUSH1 0x40 MLOAD PUSH2 0x87 SWAP2 SWAP1 PUSH2 0x9EE JUMP JUMPDEST PUSH1 0x40 MLOAD DUP1 SWAP2 SUB SWAP1 RETURN JUMPDEST PUSH2 0xAA PUSH1 0x4 DUP1 CALLDATASIZE SUB DUP2 ADD SWAP1 PUSH2 0xA5 SWAP2 SWAP1 PUSH2 0xA3A JUMP JUMPDEST PUSH2 0x1F7 JUMP JUMPDEST PUSH1 0x40 MLOAD PUSH2 0xB7 SWAP2 SWAP1 PUSH2 0x9EE JUMP JUMPDEST PUSH1 0x40 MLOAD DUP1 SWAP2 SUB SWAP1 RETURN JUMPDEST PUSH2 0xC8 PUSH2 0x415 JUMP JUMPDEST STOP JUMPDEST CALLVALUE DUP1 ISZERO PUSH2 0xD6 JUMPI PUSH1 0x0 DUP1 REVERT JUMPDEST POP PUSH2 0xDF PUSH2 0x562 JUMP JUMPDEST PUSH1 0x40 MLOAD PUSH2 0xEC SWAP2 SWAP1 PUSH2 0xAA8 JUMP JUMPDEST PUSH1 0x40 MLOAD DUP1 SWAP2 SUB SWAP1 RETURN JUMPDEST CALLVALUE DUP1 ISZERO PUSH2 0x101 JUMPI PUSH1 0x0 DUP1 REVERT JUMPDEST POP PUSH2 0x10A PUSH2 0x57A JUMP JUMPDEST PUSH1 0x40 MLOAD PUSH2 0x117 SWAP2 SWAP1 PUSH2 0xB22 JUMP JUMPDEST PUSH1 0x40 MLOAD DUP1 SWAP2 SUB SWAP1 RETURN JUMPDEST CALLVALUE DUP1 ISZERO PUSH2 0x12C JUMPI PUSH1 0x0 DUP1 REVERT JUMPDEST POP PUSH2 0x147 PUSH1 0x4 DUP1 CALLDATASIZE SUB DUP2 ADD SWAP1 PUSH2 0x142 SWAP2 SWAP1 PUSH2 0xBA4 JUMP JUMPDEST PUSH2 0x592 JUMP JUMPDEST PUSH1 0x40 MLOAD PUSH2 0x154 SWAP2 SWAP1 PUSH2 0x9EE JUMP JUMPDEST PUSH1 0x40 MLOAD DUP1 SWAP2 SUB SWAP1 RETURN JUMPDEST PUSH1 0x0 DUP1 PUSH20 0xC02AAA39B223FE8D0A0E5C4F27EAD9083C756CC2 SWAP1 POP DUP1 PUSH20 0xFFFFFFFFFFFFFFFFFFFFFFFFFFFFFFFFFFFFFFFF AND PUSH4 0x70A08231 CALLER PUSH1 0x40 MLOAD DUP3 PUSH4 0xFFFFFFFF AND PUSH1 0xE0 SHL DUP2 MSTORE PUSH1 0x4 ADD PUSH2 0x1B0 SWAP2 SWAP1 PUSH2 0xAA8 JUMP JUMPDEST PUSH1 0x20 PUSH1 0x40 MLOAD DUP1 DUP4 SUB DUP2 DUP7 GAS STATICCALL ISZERO DUP1 ISZERO PUSH2 0x1CD JUMPI RETURNDATASIZE PUSH1 0x0 DUP1 RETURNDATACOPY RETURNDATASIZE PUSH1 0x0 REVERT JUMPDEST POP POP POP POP PUSH1 0x40 MLOAD RETURNDATASIZE PUSH1 0x1F NOT PUSH1 0x1F DUP3 ADD AND DUP3 ADD DUP1 PUSH1 0x40 MSTORE POP DUP2 ADD SWAP1 PUSH2 0x1F1 SWAP2 SWAP1 PUSH2 0xC34 JUMP JUMPDEST SWAP2 POP POP SWAP1 JUMP JUMPDEST PUSH1 0x0 DUP1 CALLVALUE GT PUSH2 0x23B JUMPI PUSH1 0x40 MLOAD PUSH32 0x8C379A000000000000000000000000000000000000000000000000000000000 DUP2 MSTORE PUSH1 0x4 ADD PUSH2 0x232 SWAP1 PUSH2 0xCBE JUMP JUMPDEST PUSH1 0x40 MLOAD DUP1 SWAP2 SUB SWAP1 REVERT JUMPDEST PUSH1 0x0 PUSH1 0x40 MLOAD DUP1 PUSH2 0x100 ADD PUSH1 0x40 MSTORE DUP1 PUSH20 0xC02AAA39B223FE8D0A0E5C4F27EAD9083C756CC2 PUSH20 0xFFFFFFFFFFFFFFFFFFFFFFFFFFFFFFFFFFFFFFFF AND DUP2 MSTORE PUSH1 0x20 ADD PUSH20 0xC02AAA39B223FE8D0A0E5C4F27EAD9083C756CC2 PUSH20 0xFFFFFFFFFFFFFFFFFFFFFFFFFFFFFFFFFFFFFFFF AND DUP2 MSTORE PUSH1 0x20 ADD PUSH2 0xBB8 PUSH3 0xFFFFFF AND DUP2 MSTORE PUSH1 0x20 ADD CALLER PUSH20 0xFFFFFFFFFFFFFFFFFFFFFFFFFFFFFFFFFFFFFFFF AND DUP2 MSTORE PUSH1 0x20 ADD TIMESTAMP DUP2 MSTORE PUSH1 0x20 ADD CALLVALUE DUP2 MSTORE PUSH1 0x20 ADD DUP5 DUP2 MSTORE PUSH1 0x20 ADD PUSH1 0x0 PUSH20 0xFFFFFFFFFFFFFFFFFFFFFFFFFFFFFFFFFFFFFFFF AND DUP2 MSTORE POP SWAP1 POP PUSH20 0xE592427A0AECE92DE3EDEE1F18E0157C05861564 PUSH20 0xFFFFFFFFFFFFFFFFFFFFFFFFFFFFFFFFFFFFFFFF AND PUSH4 0x414BF389 CALLVALUE DUP4 PUSH1 0x40 MLOAD DUP4 PUSH4 0xFFFFFFFF AND PUSH1 0xE0 SHL DUP2 MSTORE PUSH1 0x4 ADD PUSH2 0x34F SWAP2 SWAP1 PUSH2 0xDBC JUMP JUMPDEST PUSH1 0x20 PUSH1 0x40 MLOAD DUP1 DUP4 SUB DUP2 DUP6 DUP9 GAS CALL ISZERO DUP1 ISZERO PUSH2 0x36D JUMPI RETURNDATASIZE PUSH1 0x0 DUP1 RETURNDATACOPY RETURNDATASIZE PUSH1 0x0 REVERT JUMPDEST POP POP POP POP POP PUSH1 0x40 MLOAD RETURNDATASIZE PUSH1 0x1F NOT PUSH1 0x1F DUP3 ADD AND DUP3 ADD DUP1 PUSH1 0x40 MSTORE POP DUP2 ADD SWAP1 PUSH2 0x392 SWAP2 SWAP1 PUSH2 0xC34 JUMP JUMPDEST SWAP2 POP PUSH20 0xC02AAA39B223FE8D0A0E5C4F27EAD9083C756CC2 PUSH20 0xFFFFFFFFFFFFFFFFFFFFFFFFFFFFFFFFFFFFFFFF AND CALLER PUSH20 0xFFFFFFFFFFFFFFFFFFFFFFFFFFFFFFFFFFFFFFFF AND PUSH32 0xDD36740E2A012D93061A0D99EAA9107860955DE4E90027D3CF465A055026C407 CALLVALUE DUP6 PUSH1 0x40 MLOAD PUSH2 0x407 SWAP3 SWAP2 SWAP1 PUSH2 0xDD8 JUMP JUMPDEST PUSH1 0x40 MLOAD DUP1 SWAP2 SUB SWAP1 LOG3 POP SWAP2 SWAP1 POP JUMP JUMPDEST PUSH1 0x0 CALLVALUE GT PUSH2 0x458 JUMPI PUSH1 0x40 MLOAD PUSH32 0x8C379A000000000000000000000000000000000000000000000000000000000 DUP2 MSTORE PUSH1 0x4 ADD PUSH2 0x44F SWAP1 PUSH2 0xCBE JUMP JUMPDEST PUSH1 0x40 MLOAD DUP1 SWAP2 SUB SWAP1 REVERT JUMPDEST PUSH20 0xC02AAA39B223FE8D0A0E5C4F27EAD9083C756CC2 PUSH20 0xFFFFFFFFFFFFFFFFFFFFFFFFFFFFFFFFFFFFFFFF AND PUSH4 0xD0E30DB0 CALLVALUE PUSH1 0x40 MLOAD DUP3 PUSH4 0xFFFFFFFF AND PUSH1 0xE0 SHL DUP2 MSTORE PUSH1 0x4 ADD PUSH1 0x0 PUSH1 0x40 MLOAD DUP1 DUP4 SUB DUP2 DUP6 DUP9 DUP1 EXTCODESIZE ISZERO DUP1 ISZERO PUSH2 0x4B4 JUMPI PUSH1 0x0 DUP1 REVERT JUMPDEST POP GAS CALL ISZERO DUP1 ISZERO PUSH2 0x4C8 JUMPI RETURNDATASIZE PUSH1 0x0 DUP1 RETURNDATACOPY RETURNDATASIZE PUSH1 0x0 REVERT JUMPDEST POP POP POP POP POP PUSH20 0xC02AAA39B223FE8D0A0E5C4F27EAD9083C756CC2 PUSH20 0xFFFFFFFFFFFFFFFFFFFFFFFFFFFFFFFFFFFFFFFF AND PUSH4 0xA9059CBB CALLER CALLVALUE PUSH1 0x40 MLOAD DUP4 PUSH4 0xFFFFFFFF AND PUSH1 0xE0 SHL DUP2 MSTORE PUSH1 0x4 ADD PUSH2 0x51C SWAP3 SWAP2 SWAP1 PUSH2 0xE01 JUMP JUMPDEST PUSH1 0x20 PUSH1 0x40 MLOAD DUP1 DUP4 SUB DUP2 PUSH1 0x0 DUP8 GAS CALL ISZERO DUP1 ISZERO PUSH2 0x53B JUMPI RETURNDATASIZE PUSH1 0x0 DUP1 RETURNDATACOPY RETURNDATASIZE PUSH1 0x0 REVERT JUMPDEST POP POP POP POP PUSH1 0x40 MLOAD RETURNDATASIZE PUSH1 0x1F NOT PUSH1 0x1F DUP3 ADD AND DUP3 ADD DUP1 PUSH1 0x40 MSTORE POP DUP2 ADD SWAP1 PUSH2 0x55F SWAP2 SWAP1 PUSH2 0xE62 JUMP JUMPDEST POP JUMP JUMPDEST PUSH20 0xC02AAA39B223FE8D0A0E5C4F27EAD9083C756CC2 DUP2 JUMP JUMPDEST PUSH20 0xE592427A0AECE92DE3EDEE1F18E0157C05861564 DUP2 JUMP JUMPDEST PUSH1 0x0 DUP1 PUSH20 0xFFFFFFFFFFFFFFFFFFFFFFFFFFFFFFFFFFFFFFFF AND DUP7 PUSH20 0xFFFFFFFFFFFFFFFFFFFFFFFFFFFFFFFFFFFFFFFF AND SUB PUSH2 0x602 JUMPI PUSH1 0x40 MLOAD PUSH32 0x8C379A000000000000000000000000000000000000000000000000000000000 DUP2 MSTORE PUSH1 0x4 ADD PUSH2 0x5F9 SWAP1 PUSH2 0xEDB JUMP JUMPDEST PUSH1 0x40 MLOAD DUP1 SWAP2 SUB SWAP1 REVERT JUMPDEST PUSH1 0x0 PUSH20 0xFFFFFFFFFFFFFFFFFFFFFFFFFFFFFFFFFFFFFFFF AND DUP6 PUSH20 0xFFFFFFFFFFFFFFFFFFFFFFFFFFFFFFFFFFFFFFFF AND SUB PUSH2 0x671 JUMPI PUSH1 0x40 MLOAD PUSH32 0x8C379A000000000000000000000000000000000000000000000000000000000 DUP2 MSTORE PUSH1 0x4 ADD PUSH2 0x668 SWAP1 PUSH2 0xF47 JUMP JUMPDEST PUSH1 0x40 MLOAD DUP1 SWAP2 SUB SWAP1 REVERT JUMPDEST DUP5 PUSH20 0xFFFFFFFFFFFFFFFFFFFFFFFFFFFFFFFFFFFFFFFF AND DUP7 PUSH20 0xFFFFFFFFFFFFFFFFFFFFFFFFFFFFFFFFFFFFFFFF AND SUB PUSH2 0x6DF JUMPI PUSH1 0x40 MLOAD PUSH32 0x8C379A000000000000000000000000000000000000000000000000000000000 DUP2 MSTORE PUSH1 0x4 ADD PUSH2 0x6D6 SWAP1 PUSH2 0xFB3 JUMP JUMPDEST PUSH1 0x40 MLOAD DUP1 SWAP2 SUB SWAP1 REVERT JUMPDEST PUSH1 0x0 DUP4 GT PUSH2 0x722 JUMPI PUSH1 0x40 MLOAD PUSH32 0x8C379A000000000000000000000000000000000000000000000000000000000 DUP2 MSTORE PUSH1 0x4 ADD PUSH2 0x719 SWAP1 PUSH2 0x101F JUMP JUMPDEST PUSH1 0x40 MLOAD DUP1 SWAP2 SUB SWAP1 REVERT JUMPDEST DUP6 PUSH20 0xFFFFFFFFFFFFFFFFFFFFFFFFFFFFFFFFFFFFFFFF AND PUSH4 0x23B872DD CALLER ADDRESS DUP7 PUSH1 0x40 MLOAD DUP5 PUSH4 0xFFFFFFFF AND PUSH1 0xE0 SHL DUP2 MSTORE PUSH1 0x4 ADD PUSH2 0x75F SWAP4 SWAP3 SWAP2 SWAP1 PUSH2 0x103F JUMP JUMPDEST PUSH1 0x20 PUSH1 0x40 MLOAD DUP1 DUP4 SUB DUP2 PUSH1 0x0 DUP8 GAS CALL ISZERO DUP1 ISZERO PUSH2 0x77E JUMPI RETURNDATASIZE PUSH1 0x0 DUP1 RETURNDATACOPY RETURNDATASIZE PUSH1 0x0 REVERT JUMPDEST POP POP POP POP PUSH1 0x40 MLOAD RETURNDATASIZE PUSH1 0x1F NOT PUSH1 0x1F DUP3 ADD AND DUP3 ADD DUP1 PUSH1 0x40 MSTORE POP DUP2 ADD SWAP1 PUSH2 0x7A2 SWAP2 SWAP1 PUSH2 0xE62 JUMP JUMPDEST POP DUP6 PUSH20 0xFFFFFFFFFFFFFFFFFFFFFFFFFFFFFFFFFFFFFFFF AND PUSH4 0x95EA7B3 PUSH20 0xE592427A0AECE92DE3EDEE1F18E0157C05861564 DUP6 PUSH1 0x40 MLOAD DUP4 PUSH4 0xFFFFFFFF AND PUSH1 0xE0 SHL DUP2 MSTORE PUSH1 0x4 ADD PUSH2 0x7F2 SWAP3 SWAP2 SWAP1 PUSH2 0xE01 JUMP JUMPDEST PUSH1 0x20 PUSH1 0x40 MLOAD DUP1 DUP4 SUB DUP2 PUSH1 0x0 DUP8 GAS CALL ISZERO DUP1 ISZERO PUSH2 0x811 JUMPI RETURNDATASIZE PUSH1 0x0 DUP1 RETURNDATACOPY RETURNDATASIZE PUSH1 0x0 REVERT JUMPDEST POP POP POP POP PUSH1 0x40 MLOAD RETURNDATASIZE PUSH1 0x1F NOT PUSH1 0x1F DUP3 ADD AND DUP3 ADD DUP1 PUSH1 0x40 MSTORE POP DUP2 ADD SWAP1 PUSH2 0x835 SWAP2 SWAP1 PUSH2 0xE62 JUMP JUMPDEST POP PUSH1 0x0 PUSH1 0x40 MLOAD DUP1 PUSH2 0x100 ADD PUSH1 0x40 MSTORE DUP1 DUP9 PUSH20 0xFFFFFFFFFFFFFFFFFFFFFFFFFFFFFFFFFFFFFFFF AND DUP2 MSTORE PUSH1 0x20 ADD DUP8 PUSH20 0xFFFFFFFFFFFFFFFFFFFFFFFFFFFFFFFFFFFFFFFF AND DUP2 MSTORE PUSH1 0x20 ADD DUP7 PUSH3 0xFFFFFF AND DUP2 MSTORE PUSH1 0x20 ADD CALLER PUSH20 0xFFFFFFFFFFFFFFFFFFFFFFFFFFFFFFFFFFFFFFFF AND DUP2 MSTORE PUSH1 0x20 ADD TIMESTAMP DUP2 MSTORE PUSH1 0x20 ADD DUP6 DUP2 MSTORE PUSH1 0x20 ADD DUP5 DUP2 MSTORE PUSH1 0x20 ADD PUSH1 0x0 PUSH20 0xFFFFFFFFFFFFFFFFFFFFFFFFFFFFFFFFFFFFFFFF AND DUP2 MSTORE POP SWAP1 POP PUSH20 0xE592427A0AECE92DE3EDEE1F18E0157C05861564 PUSH20 0xFFFFFFFFFFFFFFFFFFFFFFFFFFFFFFFFFFFFFFFF AND PUSH4 0x414BF389 DUP3 PUSH1 0x40 MLOAD DUP3 PUSH4 0xFFFFFFFF AND PUSH1 0xE0 SHL DUP2 MSTORE PUSH1 0x4 ADD PUSH2 0x91F SWAP2 SWAP1 PUSH2 0xDBC JUMP JUMPDEST PUSH1 0x20 PUSH1 0x40 MLOAD DUP1 DUP4 SUB DUP2 PUSH1 0x0 DUP8 GAS CALL ISZERO DUP1 ISZERO PUSH2 0x93E JUMPI RETURNDATASIZE PUSH1 0x0 DUP1 RETURNDATACOPY RETURNDATASIZE PUSH1 0x0 REVERT JUMPDEST POP POP POP POP PUSH1 0x40 MLOAD RETURNDATASIZE PUSH1 0x1F NOT PUSH1 0x1F DUP3 ADD AND DUP3 ADD DUP1 PUSH1 0x40 MSTORE POP DUP2 ADD SWAP1 PUSH2 0x962 SWAP2 SWAP1 PUSH2 0xC34 JUMP JUMPDEST SWAP2 POP DUP6 PUSH20 0xFFFFFFFFFFFFFFFFFFFFFFFFFFFFFFFFFFFFFFFF AND CALLER PUSH20 0xFFFFFFFFFFFFFFFFFFFFFFFFFFFFFFFFFFFFFFFF AND PUSH32 0xDD36740E2A012D93061A0D99EAA9107860955DE4E90027D3CF465A055026C407 DUP7 DUP6 PUSH1 0x40 MLOAD PUSH2 0x9C3 SWAP3 SWAP2 SWAP1 PUSH2 0xDD8 JUMP JUMPDEST PUSH1 0x40 MLOAD DUP1 SWAP2 SUB SWAP1 LOG3 POP SWAP6 SWAP5 POP POP POP POP POP JUMP JUMPDEST PUSH1 0x0 DUP2 SWAP1 POP SWAP2 SWAP1 POP JUMP JUMPDEST PUSH2 0x9E8 DUP2 PUSH2 0x9D5 JUMP JUMPDEST DUP3 MSTORE POP POP JUMP JUMPDEST PUSH1 0x0 PUSH1 0x20 DUP3 ADD SWAP1 POP PUSH2 0xA03 PUSH1 0x0 DUP4 ADD DUP5 PUSH2 0x9DF JUMP JUMPDEST SWAP3 SWAP2 POP POP JUMP JUMPDEST PUSH1 0x0 DUP1 REVERT JUMPDEST PUSH2 0xA17 DUP2 PUSH2 0x9D5 JUMP JUMPDEST DUP2 EQ PUSH2 0xA22 JUMPI PUSH1 0x0 DUP1 REVERT JUMPDEST POP JUMP JUMPDEST PUSH1 0x0 DUP2 CALLDATALOAD SWAP1 POP PUSH2 0xA34 DUP2 PUSH2 0xA0E JUMP JUMPDEST SWAP3 SWAP2 POP POP JUMP JUMPDEST PUSH1 0x0 PUSH1 0x20 DUP3 DUP5 SUB SLT ISZERO PUSH2 0xA50 JUMPI PUSH2 0xA4F PUSH2 0xA09 JUMP JUMPDEST JUMPDEST PUSH1 0x0 PUSH2 0xA5E DUP5 DUP3 DUP6 ADD PUSH2 0xA25 JUMP JUMPDEST SWAP2 POP POP SWAP3 SWAP2 POP POP JUMP JUMPDEST PUSH1 0x0 PUSH20 0xFFFFFFFFFFFFFFFFFFFFFFFFFFFFFFFFFFFFFFFF DUP3 AND SWAP1 POP SWAP2 SWAP1 POP JUMP JUMPDEST PUSH1 0x0 PUSH2 0xA92 DUP3 PUSH2 0xA67 JUMP JUMPDEST SWAP1 POP SWAP2 SWAP1 POP JUMP JUMPDEST PUSH2 0xAA2 DUP2 PUSH2 0xA87 JUMP JUMPDEST DUP3 MSTORE POP POP JUMP JUMPDEST PUSH1 0x0 PUSH1 0x20 DUP3 ADD SWAP1 POP PUSH2 0xABD PUSH1 0x0 DUP4 ADD DUP5 PUSH2 0xA99 JUMP JUMPDEST SWAP3 SWAP2 POP POP JUMP JUMPDEST PUSH1 0x0 DUP2 SWAP1 POP SWAP2 SWAP1 POP JUMP JUMPDEST PUSH1 0x0 PUSH2 0xAE8 PUSH2 0xAE3 PUSH2 0xADE DUP5 PUSH2 0xA67 JUMP JUMPDEST PUSH2 0xAC3 JUMP JUMPDEST PUSH2 0xA67 JUMP JUMPDEST SWAP1 POP SWAP2 SWAP1 POP JUMP JUMPDEST PUSH1 0x0 PUSH2 0xAFA DUP3 PUSH2 0xACD JUMP JUMPDEST SWAP1 POP SWAP2 SWAP1 POP JUMP JUMPDEST PUSH1 0x0 PUSH2 0xB0C DUP3 PUSH2 0xAEF JUMP JUMPDEST SWAP1 POP SWAP2 SWAP1 POP JUMP JUMPDEST PUSH2 0xB1C DUP2 PUSH2 0xB01 JUMP JUMPDEST DUP3 MSTORE POP POP JUMP JUMPDEST PUSH1 0x0 PUSH1 0x20 DUP3 ADD SWAP1 POP PUSH2 0xB37 PUSH1 0x0 DUP4 ADD DUP5 PUSH2 0xB13 JUMP JUMPDEST SWAP3 SWAP2 POP POP JUMP JUMPDEST PUSH2 0xB46 DUP2 PUSH2 0xA87 JUMP JUMPDEST DUP2 EQ PUSH2 0xB51 JUMPI PUSH1 0x0 DUP1 REVERT JUMPDEST POP JUMP JUMPDEST PUSH1 0x0 DUP2 CALLDATALOAD SWAP1 POP PUSH2 0xB63 DUP2 PUSH2 0xB3D JUMP JUMPDEST SWAP3 SWAP2 POP POP JUMP JUMPDEST PUSH1 0x0 PUSH3 0xFFFFFF DUP3 AND SWAP1 POP SWAP2 SWAP1 POP JUMP JUMPDEST PUSH2 0xB81 DUP2 PUSH2 0xB69 JUMP JUMPDEST DUP2 EQ PUSH2 0xB8C JUMPI PUSH1 0x0 DUP1 REVERT JUMPDEST POP JUMP JUMPDEST PUSH1 0x0 DUP2 CALLDATALOAD SWAP1 POP PUSH2 0xB9E DUP2 PUSH2 0xB78 JUMP JUMPDEST SWAP3 SWAP2 POP POP JUMP JUMPDEST PUSH1 0x0 DUP1 PUSH1 0x0 DUP1 PUSH1 0x0 PUSH1 0xA0 DUP7 DUP9 SUB SLT ISZERO PUSH2 0xBC0 JUMPI PUSH2 0xBBF PUSH2 0xA09 JUMP JUMPDEST JUMPDEST PUSH1 0x0 PUSH2 0xBCE DUP9 DUP3 DUP10 ADD PUSH2 0xB54 JUMP JUMPDEST SWAP6 POP POP PUSH1 0x20 PUSH2 0xBDF DUP9 DUP3 DUP10 ADD PUSH2 0xB54 JUMP JUMPDEST SWAP5 POP POP PUSH1 0x40 PUSH2 0xBF0 DUP9 DUP3 DUP10 ADD PUSH2 0xB8F JUMP JUMPDEST SWAP4 POP POP PUSH1 0x60 PUSH2 0xC01 DUP9 DUP3 DUP10 ADD PUSH2 0xA25 JUMP JUMPDEST SWAP3 POP POP PUSH1 0x80 PUSH2 0xC12 DUP9 DUP3 DUP10 ADD PUSH2 0xA25 JUMP JUMPDEST SWAP2 POP POP SWAP3 SWAP6 POP SWAP3 SWAP6 SWAP1 SWAP4 POP JUMP JUMPDEST PUSH1 0x0 DUP2 MLOAD SWAP1 POP PUSH2 0xC2E DUP2 PUSH2 0xA0E JUMP JUMPDEST SWAP3 SWAP2 POP POP JUMP JUMPDEST PUSH1 0x0 PUSH1 0x20 DUP3 DUP5 SUB SLT ISZERO PUSH2 0xC4A JUMPI PUSH2 0xC49 PUSH2 0xA09 JUMP JUMPDEST JUMPDEST PUSH1 0x0 PUSH2 0xC58 DUP5 DUP3 DUP6 ADD PUSH2 0xC1F JUMP JUMPDEST SWAP2 POP POP SWAP3 SWAP2 POP POP JUMP JUMPDEST PUSH1 0x0 DUP3 DUP3 MSTORE PUSH1 0x20 DUP3 ADD SWAP1 POP SWAP3 SWAP2 POP POP JUMP JUMPDEST PUSH32 0x53656E6420455448000000000000000000000000000000000000000000000000 PUSH1 0x0 DUP3 ADD MSTORE POP JUMP JUMPDEST PUSH1 0x0 PUSH2 0xCA8 PUSH1 0x8 DUP4 PUSH2 0xC61 JUMP JUMPDEST SWAP2 POP PUSH2 0xCB3 DUP3 PUSH2 0xC72 JUMP JUMPDEST PUSH1 0x20 DUP3 ADD SWAP1 POP SWAP2 SWAP1 POP JUMP JUMPDEST PUSH1 0x0 PUSH1 0x20 DUP3 ADD SWAP1 POP DUP2 DUP2 SUB PUSH1 0x0 DUP4 ADD MSTORE PUSH2 0xCD7 DUP2 PUSH2 0xC9B JUMP JUMPDEST SWAP1 POP SWAP2 SWAP1 POP JUMP JUMPDEST PUSH2 0xCE7 DUP2 PUSH2 0xA87 JUMP JUMPDEST DUP3 MSTORE POP POP JUMP JUMPDEST PUSH2 0xCF6 DUP2 PUSH2 0xB69 JUMP JUMPDEST DUP3 MSTORE POP POP JUMP JUMPDEST PUSH2 0xD05 DUP2 PUSH2 0x9D5 JUMP JUMPDEST DUP3 MSTORE POP POP JUMP JUMPDEST PUSH2 0xD14 DUP2 PUSH2 0xA67 JUMP JUMPDEST DUP3 MSTORE POP POP JUMP JUMPDEST PUSH2 0x100 DUP3 ADD PUSH1 0x0 DUP3 ADD MLOAD PUSH2 0xD31 PUSH1 0x0 DUP6 ADD DUP3 PUSH2 0xCDE JUMP JUMPDEST POP PUSH1 0x20 DUP3 ADD MLOAD PUSH2 0xD44 PUSH1 0x20 DUP6 ADD DUP3 PUSH2 0xCDE JUMP JUMPDEST POP PUSH1 0x40 DUP3 ADD MLOAD PUSH2 0xD57 PUSH1 0x40 DUP6 ADD DUP3 PUSH2 0xCED JUMP JUMPDEST POP PUSH1 0x60 DUP3 ADD MLOAD PUSH2 0xD6A PUSH1 0x60 DUP6 ADD DUP3 PUSH2 0xCDE JUMP JUMPDEST POP PUSH1 0x80 DUP3 ADD MLOAD PUSH2 0xD7D PUSH1 0x80 DUP6 ADD DUP3 PUSH2 0xCFC JUMP JUMPDEST POP PUSH1 0xA0 DUP3 ADD MLOAD PUSH2 0xD90 PUSH1 0xA0 DUP6 ADD DUP3 PUSH2 0xCFC JUMP JUMPDEST POP PUSH1 0xC0 DUP3 ADD MLOAD PUSH2 0xDA3 PUSH1 0xC0 DUP6 ADD DUP3 PUSH2 0xCFC JUMP JUMPDEST POP PUSH1 0xE0 DUP3 ADD MLOAD PUSH2 0xDB6 PUSH1 0xE0 DUP6 ADD DUP3 PUSH2 0xD0B JUMP JUMPDEST POP POP POP POP JUMP JUMPDEST PUSH1 0x0 PUSH2 0x100 DUP3 ADD SWAP1 POP PUSH2 0xDD2 PUSH1 0x0 DUP4 ADD DUP5 PUSH2 0xD1A JUMP JUMPDEST SWAP3 SWAP2 POP POP JUMP JUMPDEST PUSH1 0x0 PUSH1 0x40 DUP3 ADD SWAP1 POP PUSH2 0xDED PUSH1 0x0 DUP4 ADD DUP6 PUSH2 0x9DF JUMP JUMPDEST PUSH2 0xDFA PUSH1 0x20 DUP4 ADD DUP5 PUSH2 0x9DF JUMP JUMPDEST SWAP4 SWAP3 POP POP POP JUMP JUMPDEST PUSH1 0x0 PUSH1 0x40 DUP3 ADD SWAP1 POP PUSH2 0xE16 PUSH1 0x0 DUP4 ADD DUP6 PUSH2 0xA99 JUMP JUMPDEST PUSH2 0xE23 PUSH1 0x20 DUP4 ADD DUP5 PUSH2 0x9DF JUMP JUMPDEST SWAP4 SWAP3 POP POP POP JUMP JUMPDEST PUSH1 0x0 DUP2 ISZERO ISZERO SWAP1 POP SWAP2 SWAP1 POP JUMP JUMPDEST PUSH2 0xE3F DUP2 PUSH2 0xE2A JUMP JUMPDEST DUP2 EQ PUSH2 0xE4A JUMPI PUSH1 0x0 DUP1 REVERT JUMPDEST POP JUMP JUMPDEST PUSH1 0x0 DUP2 MLOAD SWAP1 POP PUSH2 0xE5C DUP2 PUSH2 0xE36 JUMP JUMPDEST SWAP3 SWAP2 POP POP JUMP JUMPDEST PUSH1 0x0 PUSH1 0x20 DUP3 DUP5 SUB SLT ISZERO PUSH2 0xE78 JUMPI PUSH2 0xE77 PUSH2 0xA09 JUMP JUMPDEST JUMPDEST PUSH1 0x0 PUSH2 0xE86 DUP5 DUP3 DUP6 ADD PUSH2 0xE4D JUMP JUMPDEST SWAP2 POP POP SWAP3 SWAP2 POP POP JUMP JUMPDEST PUSH32 0x496E76616C696420746F6B656E496E0000000000000000000000000000000000 PUSH1 0x0 DUP3 ADD MSTORE POP JUMP JUMPDEST PUSH1 0x0 PUSH2 0xEC5 PUSH1 0xF DUP4 PUSH2 0xC61 JUMP JUMPDEST SWAP2 POP PUSH2 0xED0 DUP3 PUSH2 0xE8F JUMP JUMPDEST PUSH1 0x20 DUP3 ADD SWAP1 POP SWAP2 SWAP1 POP JUMP JUMPDEST PUSH1 0x0 PUSH1 0x20 DUP3 ADD SWAP1 POP DUP2 DUP2 SUB PUSH1 0x0 DUP4 ADD MSTORE PUSH2 0xEF4 DUP2 PUSH2 0xEB8 JUMP JUMPDEST SWAP1 POP SWAP2 SWAP1 POP JUMP JUMPDEST PUSH32 0x496E76616C696420746F6B656E4F757400000000000000000000000000000000 PUSH1 0x0 DUP3 ADD MSTORE POP JUMP JUMPDEST PUSH1 0x0 PUSH2 0xF31 PUSH1 0x10 DUP4 PUSH2 0xC61 JUMP JUMPDEST SWAP2 POP PUSH2 0xF3C DUP3 PUSH2 0xEFB JUMP JUMPDEST PUSH1 0x20 DUP3 ADD SWAP1 POP SWAP2 SWAP1 POP JUMP JUMPDEST PUSH1 0x0 PUSH1 0x20 DUP3 ADD SWAP1 POP DUP2 DUP2 SUB PUSH1 0x0 DUP4 ADD MSTORE PUSH2 0xF60 DUP2 PUSH2 0xF24 JUMP JUMPDEST SWAP1 POP SWAP2 SWAP1 POP JUMP JUMPDEST PUSH32 0x53616D6520746F6B656E00000000000000000000000000000000000000000000 PUSH1 0x0 DUP3 ADD MSTORE POP JUMP JUMPDEST PUSH1 0x0 PUSH2 0xF9D PUSH1 0xA DUP4 PUSH2 0xC61 JUMP JUMPDEST SWAP2 POP PUSH2 0xFA8 DUP3 PUSH2 0xF67 JUMP JUMPDEST PUSH1 0x20 DUP3 ADD SWAP1 POP SWAP2 SWAP1 POP JUMP JUMPDEST PUSH1 0x0 PUSH1 0x20 DUP3 ADD SWAP1 POP DUP2 DUP2 SUB PUSH1 0x0 DUP4 ADD MSTORE PUSH2 0xFCC DUP2 PUSH2 0xF90 JUMP JUMPDEST SWAP1 POP SWAP2 SWAP1 POP JUMP JUMPDEST PUSH32 0x416D6F756E74206D757374206265203E20300000000000000000000000000000 PUSH1 0x0 DUP3 ADD MSTORE POP JUMP JUMPDEST PUSH1 0x0 PUSH2 0x1009 PUSH1 0x12 DUP4 PUSH2 0xC61 JUMP JUMPDEST SWAP2 POP PUSH2 0x1014 DUP3 PUSH2 0xFD3 JUMP JUMPDEST PUSH1 0x20 DUP3 ADD SWAP1 POP SWAP2 SWAP1 POP JUMP JUMPDEST PUSH1 0x0 PUSH1 0x20 DUP3 ADD SWAP1 POP DUP2 DUP2 SUB PUSH1 0x0 DUP4 ADD MSTORE PUSH2 0x1038 DUP2 PUSH2 0xFFC JUMP JUMPDEST SWAP1 POP SWAP2 SWAP1 POP JUMP JUMPDEST PUSH1 0x0 PUSH1 0x60 DUP3 ADD SWAP1 POP PUSH2 0x1054 PUSH1 0x0 DUP4 ADD DUP7 PUSH2 0xA99 JUMP JUMPDEST PUSH2 0x1061 PUSH1 0x20 DUP4 ADD DUP6 PUSH2 0xA99 JUMP JUMPDEST PUSH2 0x106E PUSH1 0x40 DUP4 ADD DUP5 PUSH2 0x9DF JUMP JUMPDEST SWAP5 SWAP4 POP POP POP POP JUMP INVALID LOG2 PUSH5 0x6970667358 0x22 SLT KECCAK256 0xB5 ADDMOD SMOD SWAP9 PUSH16 0x5FF8FACD0E8909E75D7A3A55C0652C0C SDIV MSTORE 0xB7 0xDA MLOAD SWAP7 0xE2 LOG1 PUSH9 0x82F964736F6C634300 ADDMOD SHR STOP CALLER "},"methodIdentifiers":{"WETH()":"ad5c4648","swapETHForWETH(uint256)":"93ed5e4b","swapRouter()":"c31c9c07","swapTokenForToken(address,address,uint24,uint256,uint256)":"c91305f5","wethBalance()":"2f6b8143","wrapETH()":"a85ef678"}}}}}