{
  "_format": "hh-sol-artifact-1",
  "contractName": "UniswapV3ETHSwapper",
  "sourceName": "contracts/UniswapV3ETHSwapper.sol",
  "abi": [
    {
      "anonymous": false,
      "inputs": [
        {
          "indexed": true,
          "internalType": "address",
          "name": "user",
          "type": "address"
        },
        {
          "indexed": true,
          "internalType": "address",
          "name": "tokenOut",
          "type": "address"
        },
        {
          "indexed": false,
          "internalType": "uint256",
          "name": "ethIn",
          "type": "uint256"
        },
        {
          "indexed": false,
          "internalType": "uint256",
          "name": "amountOut",
          "type": "uint256"
        }
      ],
      "name": "SwapExecuted",
      "type": "event"
    },
    {
      "inputs": [],
      "name": "WETH",
      "outputs": [
        {
          "internalType": "address",
          "name": "",
          "type": "address"
        }
      ],
      "stateMutability": "view",
      "type": "function"
    },
    {
      "inputs": [],
      "name": "swapRouter",
      "outputs": [
        {
          "internalType": "contract ISwapRouter",
          "name": "",
          "type": "address"
        }
      ],
      "stateMutability": "view",
      "type": "function"
    },
    {
      "inputs": [
        {
          "internalType": "address",
          "name": "_tokenIn",
          "type": "address"
        },
        {
          "internalType": "address",
          "name": "_tokenOut",
          "type": "address"
        },
        {
          "internalType": "uint24",
          "name": "_fee",
          "type": "uint24"
        },
        {
          "internalType": "uint256",
          "name": "_amountIn",
          "type": "uint256"
        },
        {
          "internalType": "uint256",
          "name": "_amountOutMin",
          "type": "uint256"
        }
      ],
      "name": "swapTokenForToken",
      "outputs": [
        {
          "internalType": "uint256",
          "name": "amountOut",
          "type": "uint256"
        }
      ],
      "stateMutability": "nonpayable",
      "type": "function"
    },
    {
      "inputs": [],
      "name": "wethBalance",
      "outputs": [
        {
          "internalType": "uint256",
          "name": "",
          "type": "uint256"
        }
      ],
      "stateMutability": "view",
      "type": "function"
    },
    {
      "inputs": [],
      "name": "wrapETH",
      "outputs": [],
      "stateMutability": "payable",
      "type": "function"
    },
    {
      "stateMutability": "payable",
      "type": "receive"
    }
  ],
  "bytecode": "0x6080604052348015600f57600080fd5b50610e268061001f6000396000f3fe60806040526004361061004e5760003560e01c80632f6b81431461005a578063a85ef67814610085578063ad5c46481461008f578063c31c9c07146100ba578063c91305f5146100e557610055565b3661005557005b600080fd5b34801561006657600080fd5b5061006f610122565b60405161007c9190610795565b60405180910390f35b61008d6101bc565b005b34801561009b57600080fd5b506100a4610309565b6040516100b191906107f1565b60405180910390f35b3480156100c657600080fd5b506100cf610321565b6040516100dc919061086b565b60405180910390f35b3480156100f157600080fd5b5061010c6004803603810190610107919061091e565b610339565b6040516101199190610795565b60405180910390f35b60008073c02aaa39b223fe8d0a0e5c4f27ead9083c756cc290508073ffffffffffffffffffffffffffffffffffffffff166370a08231336040518263ffffffff1660e01b815260040161017591906107f1565b602060405180830381865afa158015610192573d6000803e3d6000fd5b505050506040513d601f19601f820116820180604052508101906101b691906109ae565b91505090565b600034116101ff576040517f08c379a00000000000000000000000000000000000000000000000000000000081526004016101f690610a38565b60405180910390fd5b73c02aaa39b223fe8d0a0e5c4f27ead9083c756cc273ffffffffffffffffffffffffffffffffffffffff1663d0e30db0346040518263ffffffff1660e01b81526004016000604051808303818588803b15801561025b57600080fd5b505af115801561026f573d6000803e3d6000fd5b505050505073c02aaa39b223fe8d0a0e5c4f27ead9083c756cc273ffffffffffffffffffffffffffffffffffffffff1663a9059cbb33346040518363ffffffff1660e01b81526004016102c3929190610a58565b6020604051808303816000875af11580156102e2573d6000803e3d6000fd5b505050506040513d601f19601f820116820180604052508101906103069190610ab9565b50565b73c02aaa39b223fe8d0a0e5c4f27ead9083c756cc281565b73e592427a0aece92de3edee1f18e0157c0586156481565b60008073ffffffffffffffffffffffffffffffffffffffff168673ffffffffffffffffffffffffffffffffffffffff16036103a9576040517f08c379a00000000000000000000000000000000000000000000000000000000081526004016103a090610b32565b60405180910390fd5b600073ffffffffffffffffffffffffffffffffffffffff168573ffffffffffffffffffffffffffffffffffffffff1603610418576040517f08c379a000000000000000000000000000000000000000000000000000000000815260040161040f90610b9e565b60405180910390fd5b8473ffffffffffffffffffffffffffffffffffffffff168673ffffffffffffffffffffffffffffffffffffffff1603610486576040517f08c379a000000000000000000000000000000000000000000000000000000000815260040161047d90610c0a565b60405180910390fd5b600083116104c9576040517f08c379a00000000000000000000000000000000000000000000000000000000081526004016104c090610c76565b60405180910390fd5b8573ffffffffffffffffffffffffffffffffffffffff166323b872dd3330866040518463ffffffff1660e01b815260040161050693929190610c96565b6020604051808303816000875af1158015610525573d6000803e3d6000fd5b505050506040513d601f19601f820116820180604052508101906105499190610ab9565b508573ffffffffffffffffffffffffffffffffffffffff1663095ea7b373e592427a0aece92de3edee1f18e0157c05861564856040518363ffffffff1660e01b8152600401610599929190610a58565b6020604051808303816000875af11580156105b8573d6000803e3d6000fd5b505050506040513d601f19601f820116820180604052508101906105dc9190610ab9565b5060006040518061010001604052808873ffffffffffffffffffffffffffffffffffffffff1681526020018773ffffffffffffffffffffffffffffffffffffffff1681526020018662ffffff1681526020013373ffffffffffffffffffffffffffffffffffffffff168152602001858152602001428152602001848152602001600073ffffffffffffffffffffffffffffffffffffffff16815250905073e592427a0aece92de3edee1f18e0157c0586156473ffffffffffffffffffffffffffffffffffffffff1663414bf389826040518263ffffffff1660e01b81526004016106c69190610dab565b6020604051808303816000875af11580156106e5573d6000803e3d6000fd5b505050506040513d601f19601f8201168201806040525081019061070991906109ae565b91508573ffffffffffffffffffffffffffffffffffffffff163373ffffffffffffffffffffffffffffffffffffffff167fdd36740e2a012d93061a0d99eaa9107860955de4e90027d3cf465a055026c407868560405161076a929190610dc7565b60405180910390a35095945050505050565b6000819050919050565b61078f8161077c565b82525050565b60006020820190506107aa6000830184610786565b92915050565b600073ffffffffffffffffffffffffffffffffffffffff82169050919050565b60006107db826107b0565b9050919050565b6107eb816107d0565b82525050565b600060208201905061080660008301846107e2565b92915050565b6000819050919050565b600061083161082c610827846107b0565b61080c565b6107b0565b9050919050565b600061084382610816565b9050919050565b600061085582610838565b9050919050565b6108658161084a565b82525050565b6000602082019050610880600083018461085c565b92915050565b600080fd5b610894816107d0565b811461089f57600080fd5b50565b6000813590506108b18161088b565b92915050565b600062ffffff82169050919050565b6108cf816108b7565b81146108da57600080fd5b50565b6000813590506108ec816108c6565b92915050565b6108fb8161077c565b811461090657600080fd5b50565b600081359050610918816108f2565b92915050565b600080600080600060a0868803121561093a57610939610886565b5b6000610948888289016108a2565b9550506020610959888289016108a2565b945050604061096a888289016108dd565b935050606061097b88828901610909565b925050608061098c88828901610909565b9150509295509295909350565b6000815190506109a8816108f2565b92915050565b6000602082840312156109c4576109c3610886565b5b60006109d284828501610999565b91505092915050565b600082825260208201905092915050565b7f53656e6420455448000000000000000000000000000000000000000000000000600082015250565b6000610a226008836109db565b9150610a2d826109ec565b602082019050919050565b60006020820190508181036000830152610a5181610a15565b9050919050565b6000604082019050610a6d60008301856107e2565b610a7a6020830184610786565b9392505050565b60008115159050919050565b610a9681610a81565b8114610aa157600080fd5b50565b600081519050610ab381610a8d565b92915050565b600060208284031215610acf57610ace610886565b5b6000610add84828501610aa4565b91505092915050565b7f496e76616c696420746f6b656e496e0000000000000000000000000000000000600082015250565b6000610b1c600f836109db565b9150610b2782610ae6565b602082019050919050565b60006020820190508181036000830152610b4b81610b0f565b9050919050565b7f496e76616c696420746f6b656e4f757400000000000000000000000000000000600082015250565b6000610b886010836109db565b9150610b9382610b52565b602082019050919050565b60006020820190508181036000830152610bb781610b7b565b9050919050565b7f53616d6520746f6b656e00000000000000000000000000000000000000000000600082015250565b6000610bf4600a836109db565b9150610bff82610bbe565b602082019050919050565b60006020820190508181036000830152610c2381610be7565b9050919050565b7f416d6f756e74206d757374206265203e20300000000000000000000000000000600082015250565b6000610c606012836109db565b9150610c6b82610c2a565b602082019050919050565b60006020820190508181036000830152610c8f81610c53565b9050919050565b6000606082019050610cab60008301866107e2565b610cb860208301856107e2565b610cc56040830184610786565b949350505050565b610cd6816107d0565b82525050565b610ce5816108b7565b82525050565b610cf48161077c565b82525050565b610d03816107b0565b82525050565b61010082016000820151610d206000850182610ccd565b506020820151610d336020850182610ccd565b506040820151610d466040850182610cdc565b506060820151610d596060850182610ccd565b506080820151610d6c6080850182610ceb565b5060a0820151610d7f60a0850182610ceb565b5060c0820151610d9260c0850182610ceb565b5060e0820151610da560e0850182610cfa565b50505050565b600061010082019050610dc16000830184610d09565b92915050565b6000604082019050610ddc6000830185610786565b610de96020830184610786565b939250505056fea2646970667358221220b8e2e1e5e0e22e71c80c32e52100e87b7a9085193c08966d936bdf03fb796df564736f6c634300081c0033",
  "linkReferences": {},
  "deployedLinkReferences": {}
}