{
  "_format": "hh-sol-artifact-1",
  "contractName": "UniswapV3ETHSwapperTwo",
  "sourceName": "contracts/UniswapV3ETHSwapper copy.sol",
  "abi": [
    {
      "anonymous": false,
      "inputs": [
        {
          "indexed": true,
          "internalType": "address",
          "name": "user",
          "type": "address"
        },
        {
          "indexed": true,
          "internalType": "address",
          "name": "tokenOut",
          "type": "address"
        },
        {
          "indexed": false,
          "internalType": "uint256",
          "name": "ethIn",
          "type": "uint256"
        },
        {
          "indexed": false,
          "internalType": "uint256",
          "name": "amountOut",
          "type": "uint256"
        }
      ],
      "name": "SwapExecuted",
      "type": "event"
    },
    {
      "inputs": [],
      "name": "WETH",
      "outputs": [
        {
          "internalType": "address",
          "name": "",
          "type": "address"
        }
      ],
      "stateMutability": "view",
      "type": "function"
    },
    {
      "inputs": [
        {
          "internalType": "uint256",
          "name": "_amountOutMin",
          "type": "uint256"
        }
      ],
      "name": "swapETHForWETH",
      "outputs": [
        {
          "internalType": "uint256",
          "name": "amountOut",
          "type": "uint256"
        }
      ],
      "stateMutability": "payable",
      "type": "function"
    },
    {
      "inputs": [],
      "name": "swapRouter",
      "outputs": [
        {
          "internalType": "contract ISwapRouter",
          "name": "",
          "type": "address"
        }
      ],
      "stateMutability": "view",
      "type": "function"
    },
    {
      "inputs": [
        {
          "internalType": "address",
          "name": "_tokenIn",
          "type": "address"
        },
        {
          "internalType": "address",
          "name": "_tokenOut",
          "type": "address"
        },
        {
          "internalType": "uint24",
          "name": "_fee",
          "type": "uint24"
        },
        {
          "internalType": "uint256",
          "name": "_amountIn",
          "type": "uint256"
        },
        {
          "internalType": "uint256",
          "name": "_amountOutMin",
          "type": "uint256"
        }
      ],
      "name": "swapTokenForToken",
      "outputs": [
        {
          "internalType": "uint256",
          "name": "amountOut",
          "type": "uint256"
        }
      ],
      "stateMutability": "nonpayable",
      "type": "function"
    },
    {
      "inputs": [],
      "name": "wethBalance",
      "outputs": [
        {
          "internalType": "uint256",
          "name": "",
          "type": "uint256"
        }
      ],
      "stateMutability": "view",
      "type": "function"
    },
    {
      "inputs": [],
      "name": "wrapETH",
      "outputs": [],
      "stateMutability": "payable",
      "type": "function"
    },
    {
      "stateMutability": "payable",
      "type": "receive"
    }
  ],
  "bytecode": "0x6080604052348015600f57600080fd5b506110ac8061001f6000396000f3fe6080604052600436106100595760003560e01c80632f6b81431461006557806393ed5e4b14610090578063a85ef678146100c0578063ad5c4648146100ca578063c31c9c07146100f5578063c91305f51461012057610060565b3661006057005b600080fd5b34801561007157600080fd5b5061007a61015d565b60405161008791906109ee565b60405180910390f35b6100aa60048036038101906100a59190610a3a565b6101f7565b6040516100b791906109ee565b60405180910390f35b6100c8610415565b005b3480156100d657600080fd5b506100df610562565b6040516100ec9190610aa8565b60405180910390f35b34801561010157600080fd5b5061010a61057a565b6040516101179190610b22565b60405180910390f35b34801561012c57600080fd5b5061014760048036038101906101429190610ba4565b610592565b60405161015491906109ee565b60405180910390f35b60008073c02aaa39b223fe8d0a0e5c4f27ead9083c756cc290508073ffffffffffffffffffffffffffffffffffffffff166370a08231336040518263ffffffff1660e01b81526004016101b09190610aa8565b602060405180830381865afa1580156101cd573d6000803e3d6000fd5b505050506040513d601f19601f820116820180604052508101906101f19190610c34565b91505090565b600080341161023b576040517f08c379a000000000000000000000000000000000000000000000000000000000815260040161023290610cbe565b60405180910390fd5b600060405180610100016040528073c02aaa39b223fe8d0a0e5c4f27ead9083c756cc273ffffffffffffffffffffffffffffffffffffffff16815260200173c02aaa39b223fe8d0a0e5c4f27ead9083c756cc273ffffffffffffffffffffffffffffffffffffffff168152602001610bb862ffffff1681526020013373ffffffffffffffffffffffffffffffffffffffff168152602001428152602001348152602001848152602001600073ffffffffffffffffffffffffffffffffffffffff16815250905073e592427a0aece92de3edee1f18e0157c0586156473ffffffffffffffffffffffffffffffffffffffff1663414bf38934836040518363ffffffff1660e01b815260040161034f9190610dbc565b60206040518083038185885af115801561036d573d6000803e3d6000fd5b50505050506040513d601f19601f820116820180604052508101906103929190610c34565b915073c02aaa39b223fe8d0a0e5c4f27ead9083c756cc273ffffffffffffffffffffffffffffffffffffffff163373ffffffffffffffffffffffffffffffffffffffff167fdd36740e2a012d93061a0d99eaa9107860955de4e90027d3cf465a055026c4073485604051610407929190610dd8565b60405180910390a350919050565b60003411610458576040517f08c379a000000000000000000000000000000000000000000000000000000000815260040161044f90610cbe565b60405180910390fd5b73c02aaa39b223fe8d0a0e5c4f27ead9083c756cc273ffffffffffffffffffffffffffffffffffffffff1663d0e30db0346040518263ffffffff1660e01b81526004016000604051808303818588803b1580156104b457600080fd5b505af11580156104c8573d6000803e3d6000fd5b505050505073c02aaa39b223fe8d0a0e5c4f27ead9083c756cc273ffffffffffffffffffffffffffffffffffffffff1663a9059cbb33346040518363ffffffff1660e01b815260040161051c929190610e01565b6020604051808303816000875af115801561053b573d6000803e3d6000fd5b505050506040513d601f19601f8201168201806040525081019061055f9190610e62565b50565b73c02aaa39b223fe8d0a0e5c4f27ead9083c756cc281565b73e592427a0aece92de3edee1f18e0157c0586156481565b60008073ffffffffffffffffffffffffffffffffffffffff168673ffffffffffffffffffffffffffffffffffffffff1603610602576040517f08c379a00000000000000000000000000000000000000000000000000000000081526004016105f990610edb565b60405180910390fd5b600073ffffffffffffffffffffffffffffffffffffffff168573ffffffffffffffffffffffffffffffffffffffff1603610671576040517f08c379a000000000000000000000000000000000000000000000000000000000815260040161066890610f47565b60405180910390fd5b8473ffffffffffffffffffffffffffffffffffffffff168673ffffffffffffffffffffffffffffffffffffffff16036106df576040517f08c379a00000000000000000000000000000000000000000000000000000000081526004016106d690610fb3565b60405180910390fd5b60008311610722576040517f08c379a00000000000000000000000000000000000000000000000000000000081526004016107199061101f565b60405180910390fd5b8573ffffffffffffffffffffffffffffffffffffffff166323b872dd3330866040518463ffffffff1660e01b815260040161075f9392919061103f565b6020604051808303816000875af115801561077e573d6000803e3d6000fd5b505050506040513d601f19601f820116820180604052508101906107a29190610e62565b508573ffffffffffffffffffffffffffffffffffffffff1663095ea7b373e592427a0aece92de3edee1f18e0157c05861564856040518363ffffffff1660e01b81526004016107f2929190610e01565b6020604051808303816000875af1158015610811573d6000803e3d6000fd5b505050506040513d601f19601f820116820180604052508101906108359190610e62565b5060006040518061010001604052808873ffffffffffffffffffffffffffffffffffffffff1681526020018773ffffffffffffffffffffffffffffffffffffffff1681526020018662ffffff1681526020013373ffffffffffffffffffffffffffffffffffffffff168152602001428152602001858152602001848152602001600073ffffffffffffffffffffffffffffffffffffffff16815250905073e592427a0aece92de3edee1f18e0157c0586156473ffffffffffffffffffffffffffffffffffffffff1663414bf389826040518263ffffffff1660e01b815260040161091f9190610dbc565b6020604051808303816000875af115801561093e573d6000803e3d6000fd5b505050506040513d601f19601f820116820180604052508101906109629190610c34565b91508573ffffffffffffffffffffffffffffffffffffffff163373ffffffffffffffffffffffffffffffffffffffff167fdd36740e2a012d93061a0d99eaa9107860955de4e90027d3cf465a055026c40786856040516109c3929190610dd8565b60405180910390a35095945050505050565b6000819050919050565b6109e8816109d5565b82525050565b6000602082019050610a0360008301846109df565b92915050565b600080fd5b610a17816109d5565b8114610a2257600080fd5b50565b600081359050610a3481610a0e565b92915050565b600060208284031215610a5057610a4f610a09565b5b6000610a5e84828501610a25565b91505092915050565b600073ffffffffffffffffffffffffffffffffffffffff82169050919050565b6000610a9282610a67565b9050919050565b610aa281610a87565b82525050565b6000602082019050610abd6000830184610a99565b92915050565b6000819050919050565b6000610ae8610ae3610ade84610a67565b610ac3565b610a67565b9050919050565b6000610afa82610acd565b9050919050565b6000610b0c82610aef565b9050919050565b610b1c81610b01565b82525050565b6000602082019050610b376000830184610b13565b92915050565b610b4681610a87565b8114610b5157600080fd5b50565b600081359050610b6381610b3d565b92915050565b600062ffffff82169050919050565b610b8181610b69565b8114610b8c57600080fd5b50565b600081359050610b9e81610b78565b92915050565b600080600080600060a08688031215610bc057610bbf610a09565b5b6000610bce88828901610b54565b9550506020610bdf88828901610b54565b9450506040610bf088828901610b8f565b9350506060610c0188828901610a25565b9250506080610c1288828901610a25565b9150509295509295909350565b600081519050610c2e81610a0e565b92915050565b600060208284031215610c4a57610c49610a09565b5b6000610c5884828501610c1f565b91505092915050565b600082825260208201905092915050565b7f53656e6420455448000000000000000000000000000000000000000000000000600082015250565b6000610ca8600883610c61565b9150610cb382610c72565b602082019050919050565b60006020820190508181036000830152610cd781610c9b565b9050919050565b610ce781610a87565b82525050565b610cf681610b69565b82525050565b610d05816109d5565b82525050565b610d1481610a67565b82525050565b61010082016000820151610d316000850182610cde565b506020820151610d446020850182610cde565b506040820151610d576040850182610ced565b506060820151610d6a6060850182610cde565b506080820151610d7d6080850182610cfc565b5060a0820151610d9060a0850182610cfc565b5060c0820151610da360c0850182610cfc565b5060e0820151610db660e0850182610d0b565b50505050565b600061010082019050610dd26000830184610d1a565b92915050565b6000604082019050610ded60008301856109df565b610dfa60208301846109df565b9392505050565b6000604082019050610e166000830185610a99565b610e2360208301846109df565b9392505050565b60008115159050919050565b610e3f81610e2a565b8114610e4a57600080fd5b50565b600081519050610e5c81610e36565b92915050565b600060208284031215610e7857610e77610a09565b5b6000610e8684828501610e4d565b91505092915050565b7f496e76616c696420746f6b656e496e0000000000000000000000000000000000600082015250565b6000610ec5600f83610c61565b9150610ed082610e8f565b602082019050919050565b60006020820190508181036000830152610ef481610eb8565b9050919050565b7f496e76616c696420746f6b656e4f757400000000000000000000000000000000600082015250565b6000610f31601083610c61565b9150610f3c82610efb565b602082019050919050565b60006020820190508181036000830152610f6081610f24565b9050919050565b7f53616d6520746f6b656e00000000000000000000000000000000000000000000600082015250565b6000610f9d600a83610c61565b9150610fa882610f67565b602082019050919050565b60006020820190508181036000830152610fcc81610f90565b9050919050565b7f416d6f756e74206d757374206265203e20300000000000000000000000000000600082015250565b6000611009601283610c61565b915061101482610fd3565b602082019050919050565b6000602082019050818103600083015261103881610ffc565b9050919050565b60006060820190506110546000830186610a99565b6110616020830185610a99565b61106e60408301846109df565b94935050505056fea264697066735822122092a6ae4cf28362fd7b372df2ec80dfaf824817bb414749fecbd78c377d2c11cf64736f6c634300081c0033",
  "linkReferences": {},
  "deployedLinkReferences": {}
}